:020000040800F2
:1000000000200020C10E00080D0F00080D0F000891
:1000100000000000000000000000000000000000E0
:100020000000000000000000000000000D0F0008AC
:1000300000000000000000000D0F0008110D000876
:100040000D0F00080D0F00080D0F00080D0F000820
:100050000D0F00080D0F00080D0F00080D0F000810
:100060000D0F00080D0F00080D0F00080D0F000800
:100070000D0F00080D0F00080D0F00080D0F0008F0
:100080000D0F00080D0F0008000000000D0F000804
:100090000D0F00080D0F00080D0F00080D0F0008D0
:1000A0000D0F00080D0F00080D0F00080D0F0008C0
:1000B0000D0F0008000000000D0F000800000000F8
:1000C0005FF808F180B582B000AF78600A1CFB1CB5
:1000D0001A70FB1C1B78002B06D0084B074A51698D
:1000E0007A680A435A6106E0044B044A5269796807
:1000F000C9430A405A61BD4602B080BD00100240AB
:1001000080B582B000AF78600A1CFB1C1A70FB1C23
:100110001B78002B06D0084B074A91697A680A437E
:100120009A6106E0044B044A92697968C9430A401F
:100130009A61BD4602B080BD0010024080B584B017
:1001400000AF786039600023FB607B68DB68FB6090
:10015000FA680F4B1340FB603B681A683B681B79D9
:100160005B031A433B689B681A433B68DB681A438E
:100170003B681B691A433B685B691343FA68134386
:10018000FB607B68FA68DA60BD4604B080BDC0469B
:1001900003D2FFFF80B582B000AF78600A1CFB1C61
:1001A0001A70FB1C1B78002B06D07B689B68012211
:1001B0001A437B689A6005E07B689B6802221A43B9
:1001C0007B689A60BD4602B080BDC04680B586B0EF
:1001D00000AFF860B9607A6000237B61FB689A6ABF
:1001E000BB681A43FB689A627B69072293437B6171
:1001F0007A697B6813437B61FB687A695A61BD4603
:1002000006B080BD80B582B000AF78607B689B6827
:1002100004221A437B689A60BD4602B080BDC04686
:1002200080B582B000AF78607B681B6C9BB2181CF5
:10023000BD4602B080BDC04680B584B000AF7860D6
:1002400039603B1C0F3300221A700023BB603A68F0
:1002500080235B04134005D07B689A680D4B1340E4
:10026000BB6002E07B681B68BB60BB683A681340F8
:1002700004D03B1C0F3301221A7003E03B1C0F33E8
:1002800000221A703B1C0F331B78181CBD4604B0AB
:1002900080BDC046FFFFFFFE90B585B000AF041CD7
:1002A000081C111C1A1CBB1D1C807B1D18703B1DDB
:1002B0001970FB1C1A70BB1DBA1D1288203A1A80D7
:1002C000BA1DBB1D1B88191C8900CB181380FB1C91
:1002D0001B781A1C9200D318DAB27B1D1B78D31836
:1002E000DBB20533DAB2FB1C1B78DB00D9B23B1D55
:1002F0001B78CB18DBB20733DBB2791D0878391DC8
:10030000097800F0B1FA3B1C0C3300221A8064E03B
:100310003B1C0E3300221A804CE03B1C0E331A8823
:10032000FB1C1B780133101C191C01F03FF9031C46
:100330001A1C3B1C0A331A803B1C0C331A88FB1C0A
:100340001B780133101C191C01F030F9031C1A1C16
:100350003B1C08331A803B1C0E331988FB1C1B788E
:100360005A1C131C9B009B18994216DABB1D1A8855
:100370003B1C0A331B88D318274AD35C1A1C3B1C2E
:1003800008331B881A410123134006D03B1C20333D
:100390001B88181C00F0F2FA05E03B1C24331B8874
:1003A000181C00F0EBFA3B1C0E331A883B1C0E3372
:1003B00001321A803B1C0E331988FB1C1B785A1C17
:1003C000131C9B009B1801339942A6DB3B1C0C338A
:1003D0001A883B1C0C3301321A803B1C0C331A88E0
:1003E000FB1C1B780133DB009A4291DB7B1D1B78E1
:1003F0009AB2FB1C1B7801339BB2191C8900CB18E5
:100400009BB2D3189BB201339BB29BB21BB2181C98
:10041000BD4605B090BDC0467016000890B587B0C7
:1004200002AF7860081C111C1A1CFB1C1870BB1C46
:1004300019707B1C1A707B68181C00F007F9021CED
:100440003B1C0E331A703B1C0F3300221A7021E044
:100450003B1C0F331B787A68D3181B78181CFB1CC5
:100460001978BB1C1A787B1C1B783C1C2034248810
:1004700000943C1C243424880194FFF70DFF031CD6
:100480001A1CFB1C1A703B1C0F331A783B1C0F33D1
:1004900001321A703A1C0F323B1C0E3312781B7853
:1004A0009A42D5D3FB1C1B789BB21BB2181CBD46CD
:1004B00005B090BD90B587B002AF7860081C111CE4
:1004C0001A1CFB1C1870BB1C19707B1C1A703B1C7F
:1004D0000E3300221A703B1C0D33FA1C12781A706E
:1004E0007B68002B06DA7B685B427B603B1C0E332B
:1004F00001221A703B1C0E331B785BB2002B17D005
:100500003B1C0D331978BB1C1A783B1C20331B781D
:10051000381C243000880090381C28300088019056
:100520002D20FFF7B9FE031C1A1C3B1C0D331A705B
:100530007B68181C00F0AAF8031C1A1C3B1C0C3327
:100540001A703B1C0C3300229A567B1C1B789A4273
:1005500030DA3B1C0F3300221A701EE03B1C0D33B7
:100560001978BB1C1A783B1C20331B78381C2430AC
:1005700000880090381C2830008801903020FFF758
:100580008BFE031C1A1C3B1C0D331A703B1C0F33D3
:100590001A783B1C0F3301321A703B1C0F330022B8
:1005A0009A567B1C19783B1C0C331B785BB2CB1A18
:1005B0009A42D3DB3B1C0C331B78013BDAB23B1C69
:1005C0000F331A7033E03B1C0F331B785BB20A20E9
:1005D000191C00F095F8031C7868191C00F0E6FF60
:1005E000031C181C0A2101F037F80B1C9BB2303396
:1005F00098B23B1C0D331978BB1C1A783B1C203376
:100600001B783C1C2434248800943C1C2834248807
:100610000194FFF741FE031C1A1C3B1C0D331A709A
:100620003B1C0F331A783B1C0F33013A1A703B1CEA
:100630000F331B787F2BC6D93B1C0D331B785BB265
:100640009BB21BB2181CBD4605B090BD80B584B0EE
:1006500000AF78600023FB603B1C0B3301221A7053
:1006600009E07A68FB68D2183B1C0B3312781A70C9
:10067000FB680133FB603B1C0B331B78002BF0D174
:10068000FB68013B181CBD4604B080BD80B584B03A
:1006900000AF78603B1C0F3300221A703B1C0E33F6
:1006A00000221A701FE03B1C0E331B780A20191C15
:1006B00000F026F8021C7B689A420DDC3B1C0F33CD
:1006C0003A1C0E3212781A703B1C0E331A783B1CFF
:1006D0000E3301321A7006E03B1C0F333A1C0E3207
:1006E00012781A7004E03B1C0E331B78092BDAD900
:1006F0003B1C0F331B78181CBD4604B080BDC046A0
:1007000080B584B000AF786039607B68BB603B68BF
:10071000012B10D90023FB6006E07B68BA685343C5
:100720007B60FB680133FB603B685A1EFB689A42A2
:10073000F3D87B680AE03B68012B01D17B6805E0B8
:100740003B68002B01D1012300E00023181CBD46AB
:1007500004B080BD80B584B000AF7860074B1B68E3
:10076000FB6000E0C046054B1A68FB68D21A7B6844
:100770009A42F7D3BD4604B080BDC04614000020A5
:1007800080B582B000AF0A1CFB1D011C1970BB1D97
:100790001A70BB1D1B78002B06D19023DB05181C9B
:1007A000402100F04BFE05E09023DB05181C4021A2
:1007B00000F052FE094AFB1D1B78101C191C00F0AA
:1007C00049FCC046054B181C802100F059FC031C55
:1007D000012BF7D0BD4602B080BDC04600300140BD
:1007E00080B582B000AF0A1CBB1D011C19807B1DA7
:1007F0001A707B1D1B78002B06D19023DB05181C7B
:10080000402100F01BFE05E09023DB05181C402171
:1008100000F022FEBB1D1B881B0A9BB2DBB2114AF3
:10082000101C191C00F016FCC0460E4B181C802131
:1008300000F026FC031C012BF7D0BB1D1B88DBB28C
:10084000084A101C191C00F005FCC046054B181C7A
:10085000802100F015FC031C012BF7D0BD4602B02F
:1008600080BDC0460030014090B583B000AF041C8D
:10087000081C111C1A1CFB1D1C70BB1D18707B1D55
:1008800019703B1D1A702A200121FFF779FF002003
:100890000021FFF775FFFB1D1B78181C0021FFF7D7
:1008A0006FFF00200021FFF76BFF7B1D1B78181CDA
:1008B0000021FFF765FF2B200121FFF761FF0020DA
:1008C0000021FFF75DFFBB1D1B782033DBB2181C36
:1008D0000021FFF755FF00200021FFF751FF3B1DCE
:1008E0001B782033DBB2181C0021FFF749FF2C20B6
:1008F0000121FFF745FFBD4603B090BD80B584B030
:1009000000AF021CBB1D1A80002000217F227F2324
:10091000FFF7AAFF3B1C0E3300221A801CE03B1C91
:100920000C3300221A800BE0BB1D1B88181C00F042
:1009300025F83B1C0C331A883B1C0C3301321A80FF
:100940003B1C0C331B887F2BEED93B1C0E331A88C3
:100950003B1C0E3301321A803B1C0E331B887F2B4D
:10096000DDD9BD4604B080BD80B500AF024B181C78
:10097000FFF7C4FFBD4680BDFFFF000080B582B019
:1009800000AF021CBB1D1A80BB1D1B88181C002158
:10099000FFF726FFBD4602B080BDC04680B582B0DD
:1009A00000AF021CFB1D1A70FB1D1B78002B04D12D
:1009B00020200121FFF7E4FE03E021200121FFF7C1
:1009C000DFFEBD4602B080BD80B500AF80239B0234
:1009D000181C0121FFF776FB80235B01181C012105
:1009E000FFF78EFB694B8B22D2001A60674B012206
:1009F0001A71664B00229A71644B0022DA71634BC4
:100A000001225A719023DA05604B101C191C00F06A
:100A100079FC5E4BA0221A605C4B02221A71902373
:100A2000DA055A4B101C191C00F06CFC9023DB05F6
:100A3000181C0721002200F01DFD9023DB05181C67
:100A40000521002200F016FD514B00229A81504BE7
:100A500000221A814E4B0022DA804D4BE022D20058
:100A60009A804B4B0022DA81494B822252005A80F5
:100A7000474B802292005A81464A454B101C191C54
:100A800000F046FA434B181C012100F0C3FA9023F2
:100A9000DB05181C102100F0DFFC1420FFF75AFEC4
:100AA0009023DB05181C102100F0C8FC1420FFF770
:100AB00051FE9023DB05181C082100F0CDFC01201D
:100AC0000121FFF75DFE11200121FFF759FE1420DF
:100AD000FFF740FE26200121FFF752FE04200021EF
:100AE000FFF74EFEC0200121FFF74AFE1F20002124
:100AF000FFF746FEC1200121FFF742FE0020002142
:100B0000FFF73EFEC2200121FFF73AFE0020002140
:100B1000FFF736FE07200021FFF732FEC320012138
:100B2000FFF72EFE00200021FFF72AFE07200021FC
:100B3000FFF726FEC5200121FFF722FE2420002119
:100B4000FFF71EFEC8200021FFF71AFE3820012102
:100B5000FFF716FE3A200121FFF712FE05200021C3
:100B6000FFF70EFE36200121FFF70AFE08200021C4
:100B7000FFF706FE29200121FFF702FE0020FFF704
:100B80000DFFFFF7F1FEBD4680BDC0462C000020E2
:100B90001800002000300140B0B582B000AF021C48
:100BA0003960FB1D1A70FB1D1B787F2B32D9304931
:100BB000FB1D1B781A1C0F231340083B98082C4A76
:100BC000FB1D1B781C1C0F232340083B9B0806338E
:100BD0009B00D3185B68FA1D1278141C0322224074
:100BE000D200FF24251C95402A1CD2431A403B68A2
:100BF0009C01FF231C40FB1D1B781D1C03232B4065
:100C0000DB00251C9D402B1C1A43831D9B00CB1829
:100C10005A6029E0174BFA1D127852B29208154912
:100C2000F81D007840B28008C03080004158F81D9F
:100C30000078041C03202040C000FF24251C8540B0
:100C4000281CC043084039688C01FF210C40F91D65
:100C500009780D1C03212940C900251C8D40291C41
:100C60000143C0329200D150BD4602B0B0BDC04673
:100C700000ED00E000E100E080B582B000AF7860F8
:100C80007A680E4B9A4201D9012312E00C4B7A6824
:100C90001202120A013A5A6001235B42181C032116
:100CA000FFF77AFF064B00229A60054B07221A6075
:100CB0000023181CBD4602B080BDC046FFFFFF00E8
:100CC00010E000E080B582B000AF786039600F4975
:100CD0007A683B68081C111C1A1CFFF777FA0B4B4B
:100CE000181CFFF78FFAC046084B181C0421FFF7A9
:100CF000A3FA031C002BF7D0044B181CFFF790FA43
:100D0000031C181CBD4602B080BDC0460024014033
:100D100080B500AF034B1B685A1C024B1A60BD46DE
:100D200080BDC0461400002090B587B004AF80237A
:100D30009B02181C0121FFF7C5F980239B00181C9A
:100D40000121FFF7DDF900F005FA554B1B68181C6F
:100D5000FA23990000F0DCFB031C181CFFF78CFF42
:100D6000FFF732FE4F4B07221A604E4B03221A71D7
:100D70004C4B0022DA719023DA054A4B101C191CE7
:100D800000F0C0FA484B00221A71474B00221A614A
:100D9000454B00229A60444B00221A60434A424B62
:100DA000101C191CFFF7CAF9404B181C0121FFF752
:100DB000F1F9BC1D01200621FFF784FF031C2380ED
:100DC0003C1D02200621FFF77DFF031C2380BC1C75
:100DD00004200621FFF776FF031C2380344B0022FA
:100DE0000092344A0192181C002100220123FFF7CF
:100DF00015FB031C1A1C3B1C1A80BB1D1A883B1CCC
:100E00001B88DBB201210091002101912949029147
:100E1000101C191C00220023FFF74CFB264B00225C
:100E20000092244A0192181C002110220123FFF78E
:100E3000F5FA031C1A1C3B1C1A803B1D1A883B1C2C
:100E40001B88DBB201210091002101911949029117
:100E5000101C191C10220023FFF72CFB174B00223B
:100E60000092144A0192181C002120220123FFF74E
:100E7000D5FA031C1A1C3B1C1A80BB1C1A883B1C8D
:100E80001B88DBB2012100910021019109490291E7
:100E9000101C191C20220023FFF70CFB89E7C04619
:100EA000000000202C00002034000020002401401D
:100EB00060180008FFFF00006418000868180008A8
:100EC0000C488546002103E00B4B5B58435004312E
:100ED0000A480B4B42189A42F6D30A4A02E0002312
:100EE00013600432084B9A42F9D300F0EDF8FFF793
:100EF0001BFFFEE7002000206C1800080000002007
:100F000014000020140000204C000020FEE7000028
:100F100080B584B000AF786039603B1C0E3300228E
:100F20001A803B1C0E337A6812881A803B1C0E33E1
:100F30003A1C0E321188C12292010A401A803B6885
:100F40001A883B68DB8913439AB23B68DB881343FA
:100F50009AB23B681B8913439AB23B685B8913437F
:100F60009AB23B689B89134399B23B1C0E333A1CDF
:100F70000E3212880A431A807B683A1C0E3212889D
:100F80001A803B1C0E337A6892881A803B1C0E3301
:100F90003A1C0E3211881D4A0A401A803B68998813
:100FA0003B1C0E333A1C0E3212880A431A807B68AF
:100FB0003A1C0E3212889A803B681A8A7B681A8221
:100FC0003B1C0E337A6812881A803B1C0E333A1C85
:100FD0000E32128804218A431A803B6859883B1CD0
:100FE0000E333A1C0E3212880A431A807B683A1C70
:100FF0000E3212881A807B689B8B9AB2044B134086
:101000009AB27B689A83BD4604B080BDFFF0FFFFB3
:10101000FFF7FFFF80B582B000AF78600A1CFB1CB1
:101020001A70FB1C1B78002B08D07B681B889BB2B6
:10103000402213439AB27B681A8007E07B681B88C2
:101040009BB2402293439AB27B681A80BD4602B09D
:1010500080BDC04680B584B000AF78600A1CFB1C20
:101060001A700023FB607B68FB60FB680C33FB603D
:10107000FB68FA1C12781A70BD4604B080BDC046E9
:1010800080B584B000AF78600A1CBB1C1A803B1C82
:101090000F3300221A707B681B899BB2BA1C12881E
:1010A00013409BB2002B04D03B1C0F3301221A705B
:1010B00003E03B1C0F3300221A703B1C0F331B78DC
:1010C000181CBD4604B080BD80B500AF1B4B1B4A49
:1010D000126801210A431A60184B184A5168184ACD
:1010E0000A405A60154B154A1168164A0A401A60A0
:1010F000124B124A1168144A0A401A600F4B0F4AE9
:101100005168124A0A405A600C4B0C4AD26A0F21AD
:101110008A43DA62094B094A116B0D4A0A401A6385
:10112000064B064A526B01218A435A63034B002245
:101130009A6000F077F8BD4680BDC04600100240BE
:101140000CB8FFF8FFFFF6FEFFFFFBFFFFFFC0FF3D
:10115000ACFEFFFF80B584B000AF0023FB6000232E
:10116000BB6000237B6000233B60294B5A680C2343
:101170001340FB60FB68042B07D0082B09D0002B21
:1011800030D1244B244A1A6030E0224B224A1A60A4
:101190002CE01F4B5A68F0239B031340BB601C4B91
:1011A0005A6880235B0213407B60BB689B0C023350
:1011B000BB607B68002B05D1BB68184A5A43154BAE
:1011C0001A6013E0124BDA6A0F23134001333B60BD
:1011D0001148396800F09CF9031CBA685A430D4B5A
:1011E0001A6003E00B4B0C4A1A60C046084B5A6861
:1011F000F02313401B090A4AD35CDBB2FB60054BAA
:101200001A68FB68DA40034B1A60BD4604B080BD23
:10121000001002400000002000127A0000093D008A
:101220000400002080B582B000AF00237B60002363
:101230003B60314B304A1268802149020A431A60F0
:101240002D4B1A6880239B0213403B607B6801335F
:101250007B603B68002B04D17A68A023DB019A42B3
:10126000EED1254B1A6880239B02134002D0012344
:101270003B6001E000233B603B68012B38D11F4BF2
:1012800011221A601C4B1C4A52685A601A4B1A4AA7
:1012900052685A60184B184A5168194A0A405A60F5
:1012A000154B154A5268882149030A435A60124B6C
:1012B000114A1268802149040A431A60C0460E4B45
:1012C0001A6880239B041340F9D00B4B0A4A5268DA
:1012D00003218A435A60084B074A526802210A4395
:1012E0005A60C046044B5A680C231340082BF9D1AE
:1012F000BD4602B080BDC046001002400020024042
:10130000FFFFC0FF80B586B000AF78603960002372
:101310007B6100233B610023FB6000237B6185E050
:101320007B690122101C9840031C3B613B681B68D1
:101330003A691340FB60FA683B699A4273D13B6893
:101340001B79012B03D03B681B79022B38D17B68BA
:101350009B687A6952000321081C9040021CD2430A
:101360001A407B689A607B689A683B685B79191CB5
:101370007B695B00081C9840031C1A437B689A60D9
:101380007B689B889BB27A6992B20121081C9040CD
:10139000021C92B2D24392B213409AB27B689A80F6
:1013A0007B689B889AB23B689B79191C7B699BB2CE
:1013B000081C9840031C9BB213439AB27B689A8026
:1013C0007B681B687A6952000321081C9040021C4C
:1013D000D2431A407B681A607B681A683B681B79A5
:1013E000191C7B695B00081C9840031C1A437B682E
:1013F0001A607B68DB687A6992B252000321081C8C
:101400009040021CD2431A407B68DA607B68DA683D
:101410003B68DB79191C7B695B00081C9840031C46
:101420001A437B68DA607B6901337B617B690F2B30
:1014300000D875E7BD4606B080BDC04680B582B015
:1014400000AF78600A1CBB1C1A80BB1C1A887B6822
:101450009A61BD4602B080BD80B582B000AF7860B1
:101460000A1CBB1C1A807B68BA1C12881A85BD46F0
:1014700002B080BD90B585B000AF7860BB1C19800C
:101480007B1C1A700023FB600023BB607B1C1A7856
:10149000BB1C198807230B409B00111C99400B1C97
:1014A000FB60BB1C1B88DB089BB21A1CBB1C1B8887
:1014B000DB089BB2191C7B6808318900CB58B91C2A
:1014C00008880721014089000F20041C8C40211C42
:1014D000C94319407B6808329200D150BB1C1B885D
:1014E000DB089BB21A1C7B6808329200D258FB685A
:1014F0001343BB60BB1C1B88DB089BB21A1C7B68B8
:1015000008329200B968D150BD4605B090BDC046C2
:10151000002934D00123002210B488422CD30124A6
:101520002407A14204D2814202D209011B01F8E73B
:10153000E400A14204D2814202D249005B00F8E7F4
:10154000884201D3401A1A434C08A04202D3001B20
:101550005C0822438C08A04202D3001B9C08224353
:10156000CC08A04202D3001BDC082243002803D091
:101570001B0901D00909E3E7101C10BC70470028C3
:1015800001D00020C04307B4024802A140180290D5
:1015900003BDC046D90000000029F0D003B5FFF715
:1015A000B9FF0EBC4243891A1847C046002941D0F2
:1015B00010B4041C4C40A44601230022002900D58D
:1015C0004942002800D5404288422CD301242407F8
:1015D000A14204D2814202D209011B01F8E7E400D2
:1015E000A14204D2814202D249005B00F8E788425E
:1015F00001D3401A1A434C08A04202D3001B5C08D6
:1016000022438C08A04202D3001B9C082243CC0832
:10161000A04202D3001BDC082243002803D01B0990
:1016200001D00909E3E7101C6446002C00D54042B4
:1016300010BC7047002806D003DB0020C0434008E0
:1016400001E08020000607B4024802A14018029081
:1016500003BDC046190000000029EBD003B5FFF719
:10166000A7FF0EBC4243891A1847C0467047C046C0
:10167000000000000000005F0000000700070014E9
:101680007F147F14242A7F2A1223130864623649A8
:101690005522500005030000001C22410000412299
:1016A0001C0014083E081408083E080800503000CA
:1016B0000008080808080060600000201008040204
:1016C0003E5149453E00427F40004261514946211A
:1016D00041454B311814127F1027454545393C4A86
:1016E00049493001710905033649494936064949D6
:1016F000291E00363600000056360000081422412C
:101700000014141414140041221408020151090693
:10171000324979413E7E1111117E7F494949363E59
:10172000414141227F4141221C7F494949417F0972
:101730000909013E4149497A7F0808087F00417F35
:1017400041002040413F017F081422417F4040403A
:10175000407F020C027F7F0408107F3E4141413EE2
:101760007F090909063E4151215E7F091929464634
:101770004949493101017F01013F4040403F1F205D
:1017800040201F3F4038403F63140814630708702F
:1017900008076151494543007F4141000204081098
:1017A000200041417F0004020102044040404040CB
:1017B000000102040020545454787F4844443838CF
:1017C00044444420384444487F3854545418087ED4
:1017D0000901020C5252523E7F0804047800447DF5
:1017E00040002040443D007F1028440000417F40DD
:1017F000007C041804787C08040478384444443895
:101800007C14141408081414187C7C080404084878
:1018100054545420043F4440203C4040207C1C2031
:1018200040201C3C4030403C44281028440C505080
:10183000503C4464544C44000836410000007F0092
:101840000000413608001008081008784641467824
:10185000FF00000000000000252E306600000000A0
:0C186000583A2000593A20005A3A200063
:10186C00006CDC0200000000000000000102030418
:04187C00060708094A
:0400000508000000EF
:00000001FF
