:020000040800F2
:100000000020002025140008711400087114000855
:1000100000000000000000000000000000000000E0
:100020000000000000000000000000007114000843
:10003000000000000000000071140008F10D00082D
:10004000711400087114000871140008711400087C
:10005000711400087114000871140008711400086C
:10006000711400087114000871140008711400085C
:10007000711400087114000871140008711400084C
:1000800071140008711400080000000071140008C9
:10009000711400087114000871140008711400082C
:1000A000711400087114000871140008711400081C
:1000B0007114000800000000711400080000000026
:1000C0005FF808F180B582B000AF78600A1CFB1CB5
:1000D0001A70FB1C1B78002B06D0084B074A51698D
:1000E0007A680A435A6106E0044B044A5269796807
:1000F000C9430A405A61BD4602B080BD00100240AB
:1001000080B582B000AF78600A1CFB1C1A70FB1C23
:100110001B78002B06D0084B074A91697A680A437E
:100120009A6106E0044B044A92697968C9430A401F
:100130009A61BD4602B080BD0010024080B584B017
:1001400000AF786039600023FB607B68DB68FB6090
:10015000FA680F4B1340FB603B681A683B681B79D9
:100160005B031A433B689B681A433B68DB681A438E
:100170003B681B691A433B685B691343FA68134386
:10018000FB607B68FA68DA60BD4604B080BDC0469B
:1001900003D2FFFF80B582B000AF78600A1CFB1C61
:1001A0001A70FB1C1B78002B06D07B689B68012211
:1001B0001A437B689A6005E07B689B6802221A43B9
:1001C0007B689A60BD4602B080BDC04680B586B0EF
:1001D00000AFF860B9607A6000237B61FB689A6ABF
:1001E000BB681A43FB689A627B69072293437B6171
:1001F0007A697B6813437B61FB687A695A61BD4603
:1002000006B080BD80B582B000AF78607B689B6827
:1002100004221A437B689A60BD4602B080BDC04686
:1002200080B582B000AF78607B681B6C9BB2181CF5
:10023000BD4602B080BDC04680B584B000AF7860D6
:1002400039603B1C0F3300221A700023BB603A68F0
:1002500080235B04134005D07B689A680D4B1340E4
:10026000BB6002E07B681B68BB60BB683A681340F8
:1002700004D03B1C0F3301221A7003E03B1C0F33E8
:1002800000221A703B1C0F331B78181CBD4604B0AB
:1002900080BDC046FFFFFFFE90B585B000AF041CD7
:1002A000081C111C1A1CBB1D1C807B1D18703B1DDB
:1002B0001970FB1C1A70BB1DBA1D1288203A1A80D7
:1002C000BA1DBB1D1B88191C8900CB181380FB1C91
:1002D0001B781A1C9200D318DAB27B1D1B78D31836
:1002E000DBB20533DAB2FB1C1B78DB00D9B23B1D55
:1002F0001B78CB18DBB20733DBB2791D0878391DC8
:10030000097800F021FB3B1C0C3300221A8064E0CA
:100310003B1C0E3300221A804CE03B1C0E331A8823
:10032000FB1C1B780133101C191C01F00FFC031C73
:100330001A1C3B1C0A331A803B1C0C331A88FB1C0A
:100340001B780133101C191C01F000FC031C1A1C43
:100350003B1C08331A803B1C0E331988FB1C1B788E
:100360005A1C131C9B009B18994216DABB1D1A8855
:100370003B1C0A331B88D318274AD35C1A1C3B1C2E
:1003800008331B881A410123134006D03B1C20333D
:100390001B88181C00F062FB05E03B1C24331B8803
:1003A000181C00F05BFB3B1C0E331A883B1C0E3301
:1003B00001321A803B1C0E331988FB1C1B785A1C17
:1003C000131C9B009B1801339942A6DB3B1C0C338A
:1003D0001A883B1C0C3301321A803B1C0C331A88E0
:1003E000FB1C1B780133DB009A4291DB7B1D1B78E1
:1003F0009AB2FB1C1B7801339BB2191C8900CB18E5
:100400009BB2D3189BB201339BB29BB21BB2181C98
:10041000BD4605B090BDC0468080000890B587B04D
:1004200002AF7860081C111C1A1CFB1C1870BB1C46
:1004300019707B1C1A707B68181C00F077F9021C7D
:100440003B1C0E331A703B1C0F3300221A7021E044
:100450003B1C0F331B787A68D3181B78181CFB1CC5
:100460001978BB1C1A787B1C1B783C1C2034248810
:1004700000943C1C243424880194FFF70DFF031CD6
:100480001A1CFB1C1A703B1C0F331A783B1C0F33D1
:1004900001321A703A1C0F323B1C0E3312781B7853
:1004A0009A42D5D3FB1C1B789BB21BB2181CBD46CD
:1004B00005B090BD90B587B002AF7860081C111CE4
:1004C0001A1CFB1C1870BB1C19707B1C1A703B1C7F
:1004D0000E3300221A703B1C0D33FA1C12781A706E
:1004E0007B68002B06DA7B685B427B603B1C0E332B
:1004F00001221A703B1C0E331B785BB2002B17D005
:100500003B1C0D331978BB1C1A783B1C20331B781D
:10051000381C243000880090381C28300088019056
:100520002D20FFF7B9FE031C1A1C3B1C0D331A705B
:100530007B68181C00F01AF9031C1A1C3B1C0C33B6
:100540001A703B1C0C3300229A567B1C1B789A4273
:1005500030DA3B1C0F3300221A701EE03B1C0D33B7
:100560001978BB1C1A783B1C20331B78381C2430AC
:1005700000880090381C2830008801903020FFF758
:100580008BFE031C1A1C3B1C0D331A703B1C0F33D3
:100590001A783B1C0F3301321A703B1C0F330022B8
:1005A0009A567B1C19783B1C0C331B785BB2CB1A18
:1005B0009A42D3DB3B1C0C331B78013BDAB23B1C69
:1005C0000F331A7033E03B1C0F331B785BB20A20E9
:1005D000191C00F005F9031C7868191C01F0B6FA23
:1005E000031C181C0A2101F007FB0B1C9BB23033C3
:1005F00098B23B1C0D331978BB1C1A783B1C203376
:100600001B783C1C2434248800943C1C2834248807
:100610000194FFF741FE031C1A1C3B1C0D331A709A
:100620003B1C0F331A783B1C0F33013A1A703B1CEA
:100630000F331B787F2BC6D93B1C0D331B785BB265
:100640009BB21BB2181CBD4605B090BD90B58DB0D5
:1006500002AF7860081C111C1A1CFB1C1870BB1C14
:1006600019707B1C1A703B1C0C332F4A11681960DF
:1006700012791A713B1C2633FA1C12781A707B1CF3
:100680001B783033DAB23B1C0C339A70786801F077
:1006900041FC031C0C1C391C14313A1C0C32081C84
:1006A000111C1A1C231C01F0A5FC021C3B1C253349
:1006B0001A703B1C273300221A7024E03B1C27339E
:1006C0001B783A1C1432D35C181C3B1C2633197857
:1006D000BB1C1A783B1C38331B783C1C3C342488E8
:1006E00000943C1C403424880194FFF7D5FD031C82
:1006F0001A1C3B1C26331A703B1C27331A783B1CF0
:10070000273301321A703A1C27323B1C25331278EA
:100710001B789A42D2D33B1C26331B789BB21BB268
:10072000181CBD460BB090BD6882000880B584B02F
:1007300000AF78600023FB603B1C0B3301221A7072
:1007400009E07A68FB68D2183B1C0B3312781A70E8
:10075000FB680133FB603B1C0B331B78002BF0D193
:10076000FB68013B181CBD4604B080BD80B584B059
:1007700000AF78603B1C0F3300221A703B1C0E3315
:1007800000221A701FE03B1C0E331B780A20191C34
:1007900000F026F8021C7B689A420DDC3B1C0F33EC
:1007A0003A1C0E3212781A703B1C0E331A783B1C1E
:1007B0000E3301321A7006E03B1C0F333A1C0E3226
:1007C00012781A7004E03B1C0E331B78092BDAD91F
:1007D0003B1C0F331B78181CBD4604B080BDC046BF
:1007E00080B584B000AF786039607B68BB603B68DF
:1007F000012B10D90023FB6006E07B68BA685343E5
:100800007B60FB680133FB603B685A1EFB689A42C1
:10081000F3D87B680AE03B68012B01D17B6805E0D7
:100820003B68002B01D1012300E00023181CBD46CA
:1008300004B080BD80B584B000AF7860074B1B6802
:10084000FB6000E0C046054B1A68FB68D21A7B6863
:100850009A42F7D3BD4604B080BDC0468C08002044
:1008600080B582B000AF0A1CFB1D011C1970BB1DB6
:100870001A70BB1D1B78002B06D19023DB05181CBA
:10088000402101F08DF805E09023DB05181C402184
:1008900001F094F8094AFB1D1B78101C191C00F08C
:1008A0008BFEC046054B181C802100F09BFE031CEC
:1008B000012BF7D0BD4602B080BDC04600300140DC
:1008C00080B582B000AF0A1CBB1D011C19807B1DC6
:1008D0001A707B1D1B78002B06D19023DB05181C9A
:1008E000402101F05DF805E09023DB05181C402154
:1008F00001F064F8BB1D1B881B0A9BB2DBB2114AD6
:10090000101C191C00F058FEC0460E4B181C80210C
:1009100000F068FE031C012BF7D0BB1D1B88DBB267
:10092000084A101C191C00F047FEC046054B181C55
:10093000802100F057FE031C012BF7D0BD4602B00A
:1009400080BDC0460030014090B583B000AF041CAC
:10095000081C111C1A1CFB1D1C70BB1D18707B1D74
:1009600019703B1D1A702A200121FFF779FF002022
:100970000021FFF775FFFB1D1B78181C0021FFF7F6
:100980006FFF00200021FFF76BFF7B1D1B78181CF9
:100990000021FFF765FF2B200121FFF761FF0020F9
:1009A0000021FFF75DFFBB1D1B782033DBB2181C55
:1009B0000021FFF755FF00200021FFF751FF3B1DED
:1009C0001B782033DBB2181C0021FFF749FF2C20D5
:1009D0000121FFF745FFBD4603B090BD80B584B04F
:1009E00000AF021CBB1D1A80002000217F227F2344
:1009F000FFF7AAFF3B1C0E3300221A801CE03B1CB1
:100A00000C3300221A800BE0BB1D1B88181C00F061
:100A100025F83B1C0C331A883B1C0C3301321A801E
:100A20003B1C0C331B887F2BEED93B1C0E331A88E2
:100A30003B1C0E3301321A803B1C0E331B887F2B6C
:100A4000DDD9BD4604B080BD80B500AF024B181C97
:100A5000FFF7C4FFBD4680BDFFFF000080B582B038
:100A600000AF021CBB1D1A80BB1D1B88181C002177
:100A7000FFF726FFBD4602B080BDC04680B582B0FC
:100A800000AF021CFB1D1A70FB1D1B78002B04D14C
:100A900020200121FFF7E4FE03E021200121FFF7E0
:100AA000DFFEBD4602B080BD80B500AF80239B0253
:100AB000181C0121FFF706FB80235B01181C012194
:100AC000FFF71EFB694B8B22D2001A60674B012295
:100AD0001A71664B00229A71644B0022DA71634BE3
:100AE00001225A719023DA05604B101C191C00F08A
:100AF000BBFE5E4BA0221A605C4B02221A7190234F
:100B0000DA055A4B101C191C00F0AEFE9023DB05D1
:100B1000181C0721002200F05FFF9023DB05181C42
:100B20000521002200F058FF514B00229A81504BC2
:100B300000221A814E4B0022DA804D4BE022D20077
:100B40009A804B4B0022DA81494B822252005A8014
:100B5000474B802292005A81464A454B101C191C73
:100B600000F088FC434B181C012100F005FD902388
:100B7000DB05181C102100F021FF1420FFF75AFE9E
:100B80009023DB05181C102100F00AFF1420FFF74A
:100B900051FE9023DB05181C082100F00FFF0120F7
:100BA0000121FFF75DFE11200121FFF759FE1420FE
:100BB000FFF740FE26200121FFF752FE042000210E
:100BC000FFF74EFEC0200121FFF74AFE1F20002143
:100BD000FFF746FEC1200121FFF742FE0020002161
:100BE000FFF73EFEC2200121FFF73AFE0020002160
:100BF000FFF736FE07200021FFF732FEC320012158
:100C0000FFF72EFE00200021FFF72AFE072000211B
:100C1000FFF726FEC5200121FFF722FE2420002138
:100C2000FFF71EFEC8200021FFF71AFE3820012121
:100C3000FFF716FE3A200121FFF712FE05200021E2
:100C4000FFF70EFE36200121FFF70AFE08200021E3
:100C5000FFF706FE29200121FFF702FE0020FFF723
:100C60000DFFFFF7F1FEBD4680BDC046DC08002049
:100C7000C808002000300140B0B582B000AF021CAF
:100C80003960FB1D1A70FB1D1B787F2B32D9304950
:100C9000FB1D1B781A1C0F231340083B98082C4A95
:100CA000FB1D1B781C1C0F232340083B9B080633AD
:100CB0009B00D3185B68FA1D1278141C0322224093
:100CC000D200FF24251C95402A1CD2431A403B68C1
:100CD0009C01FF231C40FB1D1B781D1C03232B4084
:100CE000DB00251C9D402B1C1A43831D9B00CB1849
:100CF0005A6029E0174BFA1D127852B29208154932
:100D0000F81D007840B28008C03080004158F81DBE
:100D10000078041C03202040C000FF24251C8540CF
:100D2000281CC043084039688C01FF210C40F91D84
:100D300009780D1C03212940C900251C8D40291C60
:100D40000143C0329200D150BD4602B0B0BDC04692
:100D500000ED00E000E100E080B582B000AF786017
:100D60007A680E4B9A4201D9012312E00C4B7A6843
:100D70001202120A013A5A6001235B42181C032135
:100D8000FFF77AFF064B00229A60054B07221A6094
:100D90000023181CBD4602B080BDC046FFFFFF0007
:100DA00010E000E080B582B000AF786039600F4994
:100DB0007A683B68081C111C1A1CFFF707FA0B4BDA
:100DC000181CFFF71FFAC046084B181C0421FFF738
:100DD00033FA031C002BF7D0044B181CFFF720FA42
:100DE000031C181CBD4602B080BDC0460024014053
:100DF00080B500AF034B1B685A1C024B1A60BD46FE
:100E000080BDC0468C08002090B58DB004AF802313
:100E10009B02181C0121FFF755F980239B00181C29
:100E20000121FFF76DF900F047FCE64B1B68181C29
:100E3000FA23990000F03CFE031C181CFFF78CFFFE
:100E4000FFF732FEE04B07221A60DF4B03221A71D4
:100E5000DD4B0022DA719023DA05DB4B101C191CE4
:100E600000F002FDD94B00221A71D84B00221A6102
:100E7000D64B00229A60D54B00221A60D44AD34B3D
:100E8000101C191CFFF75AF9D14B181C0121FFF750
:100E900081F93B1C1E3300221A803B1C1C330122AB
:100EA00052421A803B1C1A3300221A803B1C183312
:100EB000012252421A803B1C163300221A803B1C2E
:100EC0001433012252421A803C1C123401200621A4
:100ED000FFF768FF031C23803C1C1034022006210E
:100EE000FFF760FF031C23803C1C0E340420062106
:100EF000FFF758FF031C23803A1C12323B1C1E33A1
:100F000012881B889A4205D93B1C1E333A1C1232A8
:100F100012881A803A1C12323B1C1C3312881B8820
:100F20009A4205D23B1C1C333A1C123212881A809A
:100F30003A1C10323B1C1A3312881B889A4205D97E
:100F40003B1C1A333A1C103212881A803A1C103299
:100F50003B1C183312881B889A4205D23B1C18335D
:100F60003A1C103212881A803A1C0E323B1C16337F
:100F700012881B889A4205D93B1C16333A1C0E3244
:100F800012881A803A1C0E323B1C143312881B88BC
:100F90009A4205D23B1C14333A1C0E3212881A8036
:100FA0008C4B002200928C4A0192181C00210022D6
:100FB0000023FFF733FA031C1A1C3B1C0C331A8066
:100FC0003B1C12331A883B1C0C331B88DBB20021FC
:100FD00000910021019180490291101C191C0022EE
:100FE0000023FFF767FA7D4B002200927A4A0192B4
:100FF000181C002108220023FFF710FA031C1A1CFA
:101000003B1C0C331A803B1C10331A883B1C0C33DE
:101010001B88DBB200210091002101916E490291F1
:10102000101C191C08220023FFF744FA6C4B002205
:101030000092694A0192181C002110220023FFF738
:10104000EDF9031C1A1C3B1C0C331A803B1C0E339D
:101050001A883B1C0C331B88DBB200210091002155
:1010600001915D490291101C191C10220023FFF709
:1010700021FA5C4B00220092574A0192181C002171
:1010800020220023FFF7CAF9031C1A1C3B1C0C3357
:101090001A803B1C1E331A883B1C0C331B88DBB2A6
:1010A00000210091002101914B490291101C191C53
:1010B00020220023FFF7FEF9031C1A1C3B1C0C33F3
:1010C0001A803B1C0C331B88DBB2474A002100917D
:1010D00041490191101C191C20220023FFF79EF9A1
:1010E000031C1A1C3B1C0C331A803B1C1C331A8833
:1010F0003B1C0C331B88DBB20021009100210191C5
:1011000035490291101C191C20220023FFF7D2F947
:10111000031C1A1C3B1C0C331A80344B0022009217
:101120002D4A0192181C002128220023FFF776F98E
:10113000031C1A1C3B1C0C331A803B1C1A331A88E4
:101140003B1C0C331B88DBB2002100910021019174
:1011500021490291101C191C28220023FFF7AAF92B
:10116000031C1A1C3B1C0C331A803B1C0C331B88C1
:10117000DBB21F4A0021009117490191101C191C74
:1011800028220023FFF74AF9031C1A1C3B1C0C33CE
:101190001A803B1C18331A883B1C0C331B88DBB2AB
:1011A00000210091002101910B490291101C191C92
:1011B00028220023FFF77EF9031C1A1C3B1C0C336A
:1011C0001A8017E000000020DC080020E40800205E
:1011D0000024014070820008FFFF000078820008B0
:1011E00080820008888200089082000898820008A7
:1011F000A0820008854B00220092854A0192181CAB
:10120000002130220023FFF709F9031C1A1C3B1CA4
:101210000C331A803B1C16331A883B1C0C331B887A
:10122000DBB2002100910021019179490291101C4B
:10123000191C30220023FFF73DF9031C1A1C3B1C2C
:101240000C331A803B1C0C331B88DBB2714A002123
:1012500000916F490191101C191C30220023FFF7E7
:10126000DDF8031C1A1C3B1C0C331A803B1C143386
:101270001A883B1C0C331B88DBB200210091002133
:10128000019163490291101C191C30220023FFF7C1
:1012900011F9031C1A1C3B1C0C331A803B1C123323
:1012A0001A883B1C1C331B88D31A181C00F0D6FD6F
:1012B000041C3B1C1E331A883B1C1C331B88D31A8E
:1012C000181C00F0CBFD031C201C191C00F0A0FC16
:1012D000031CBB603B1C10331A883B1C18331B8853
:1012E000D31A181C00F0BAFD041C3B1C1A331A88D0
:1012F0003B1C18331B88D31A181C00F0AFFD031CCD
:10130000201C191C00F084FC031C7B603B1C0E336A
:101310001A883B1C14331B88D31A181C00F09EFD3E
:10132000041C3B1C16331A883B1C14331B88D31A2D
:10133000181C00F093FD031C201C191C00F068FC15
:10134000031C3B60344B00220092314A0192181C6E
:10135000002148220023FFF761F8031C1A1C3B1CE4
:101360000C331A803B1C0C331B88DBB2BA6800219B
:1013700000910021019126490291101C191C48225C
:101380000223FFF763F9254B00220092204A0192C5
:10139000181C002150220023FFF740F8031C1A1CE0
:1013A0003B1C0C331A803B1C0C331B88DBB27A6865
:1013B000002100910021019115490291101C191C76
:1013C00050220223FFF742F9154B00220092104AE7
:1013D0000192181C002158220023FFF71FF8031C5C
:1013E0001A1C3B1C0C331A803B1C0C331B88DBB2D1
:1013F0003A68002100910021019105490291101CD9
:10140000191C58220223FFF721F95DE5A882000884
:10141000FFFF0000B0820008B8820008C082000808
:10142000C88200080C488546002103E00B4B5B583E
:10143000435004310A480B4B42189A42F6D30A4AE9
:1014400002E0002313600432084B9A42F9D300F003
:10145000EDF8FFF7D9FCFEE7002000207C860008AD
:10146000000000208C0800208C08002000090020CB
:10147000FEE7000080B584B000AF786039603B1CA7
:101480000E3300221A803B1C0E337A6812881A80B1
:101490003B1C0E333A1C0E321188C12292010A40C5
:1014A0001A803B681A883B68DB8913439AB23B6811
:1014B000DB8813439AB23B681B8913439AB23B689B
:1014C0005B8913439AB23B689B89134399B23B1CD7
:1014D0000E333A1C0E3212880A431A807B683A1C7B
:1014E0000E3212881A803B1C0E337A6892881A805A
:1014F0003B1C0E333A1C0E3211881D4A0A401A80DA
:101500003B6899883B1C0E333A1C0E3212880A4302
:101510001A807B683A1C0E3212889A803B681A8ABD
:101520007B681A823B1C0E337A6812881A803B1C37
:101530000E333A1C0E32128804218A431A803B680B
:1015400059883B1C0E333A1C0E3212880A431A800B
:101550007B683A1C0E3212881A807B689B8B9AB289
:10156000044B13409AB27B689A83BD4604B080BD99
:10157000FFF0FFFFFFF7FFFF80B582B000AF78609C
:101580000A1CFB1C1A70FB1C1B78002B08D07B6804
:101590001B889BB2402213439AB27B681A8007E0F3
:1015A0007B681B889BB2402293439AB27B681A8067
:1015B000BD4602B080BDC04680B584B000AF786043
:1015C0000A1CFB1C1A700023FB607B68FB60FB6835
:1015D0000C33FB60FB68FA1C12781A70BD4604B02D
:1015E00080BDC04680B584B000AF78600A1CBB1CCB
:1015F0001A803B1C0F3300221A707B681B899BB238
:10160000BA1C128813409BB2002B04D03B1C0F3332
:1016100001221A7003E03B1C0F3300221A703B1C9E
:101620000F331B78181CBD4604B080BD80B500AFD9
:101630001B4B1B4A126801210A431A60184B184AB7
:101640005168184A0A405A60154B154A1168164AE3
:101650000A401A60124B124A1168144A0A401A6072
:101660000F4B0F4A5168124A0A405A600C4B0C4A01
:10167000D26A0F218A43DA62094B094A116B0D4A7B
:101680000A401A63064B064A526B01218A435A6389
:10169000034B00229A6000F077F8BD4680BDC0463B
:1016A000001002400CB8FFF8FFFFF6FEFFFFFBFF43
:1016B000FFFFC0FFACFEFFFF80B584B000AF00238A
:1016C000FB600023BB6000237B6000233B60294B51
:1016D0005A680C231340FB60FB68042B07D0082BCF
:1016E00009D0002B30D1244B244A1A6030E0224B21
:1016F000224A1A602CE01F4B5A68F0239B031340C8
:10170000BB601C4B5A6880235B0213407B60BB6844
:101710009B0C0233BB607B68002B05D1BB68184A69
:101720005A43154B1A6013E0124BDA6A0F23134029
:1017300001333B601148396800F0BAF9031CBA68FC
:101740005A430D4B1A6003E00B4B0C4A1A60C0461B
:10175000084B5A68F02313401B090A4AD35CDBB2DA
:10176000FB60054B1A68FB68DA40034B1A60BD4604
:1017700004B080BD001002400000002000127A007A
:1017800000093D000400002080B582B000AF0023B6
:101790007B6000233B60314B304A12688021490254
:1017A0000A431A602D4B1A6880239B0213403B604A
:1017B0007B6801337B603B68002B04D17A68A023EF
:1017C000DB019A42EED1254B1A6880239B0213401D
:1017D00002D001233B6001E000233B603B68012B0A
:1017E00038D11F4B11221A601C4B1C4A52685A6098
:1017F0001A4B1A4A52685A60184B184A5168194ACB
:101800000A405A60154B154A5268882149030A4319
:101810005A60124B114A1268802149040A431A6027
:10182000C0460E4B1A6880239B041340F9D00B4B23
:101830000A4A526803218A435A60084B074A526891
:1018400002210A435A60C046044B5A680C231340D5
:10185000082BF9D1BD4602B080BDC0460010024041
:1018600000200240FFFFC0FF80B586B000AF786067
:10187000396000237B6100233B610023FB60002370
:101880007B6185E07B690122101C9840031C3B6151
:101890003B681B683A691340FB60FA683B699A42EF
:1018A00073D13B681B79012B03D03B681B79022B5A
:1018B00038D17B689B687A6952000321081C9040EC
:1018C000021CD2431A407B689A607B689A683B6826
:1018D0005B79191C7B695B00081C9840031C1A4348
:1018E0007B689A607B689B889BB27A6992B201217F
:1018F000081C9040021C92B2D24392B213409AB29A
:101900007B689A807B689B889AB23B689B79191C9C
:101910007B699BB2081C9840031C9BB213439AB28C
:101920007B689A807B681B687A6952000321081CD7
:101930009040021CD2431A407B681A607B681A6888
:101940003B681B79191C7B695B00081C9840031CD1
:101950001A437B681A607B68DB687A6992B252002E
:101960000321081C9040021CD2431A407B68DA60B5
:101970007B68DA683B68DB79191C7B695B00081CB3
:101980009840031C1A437B68DA607B6901337B61F2
:101990007B690F2B00D875E7BD4606B080BDC046F9
:1019A00080B582B000AF78600A1CBB1C1A80BB1CDB
:1019B0001A887B689A61BD4602B080BD80B582B04E
:1019C00000AF78600A1CBB1C1A807B68BA1C1288A6
:1019D0001A85BD4602B080BD90B585B000AF786075
:1019E000BB1C19807B1C1A700023FB600023BB60AA
:1019F0007B1C1A78BB1C198807230B409B00111C09
:101A000099400B1CFB60BB1C1B88DB089BB21A1C9B
:101A1000BB1C1B88DB089BB2191C7B680831890042
:101A2000CB58B91C08880721014089000F20041CED
:101A30008C40211CC94319407B6808329200D15068
:101A4000BB1C1B88DB089BB21A1C7B680832920007
:101A5000D258FB681343BB60BB1C1B88DB089BB2DE
:101A60001A1C7B6808329200B968D150BD4605B097
:101A700090BDC04680B584B000AF78600A4B1B684B
:101A8000002B02D1084B094A1A60074B1B68FB6008
:101A9000054B1A687B68D218034B1A60FB68181C48
:101AA000BD4604B080BDC04690080020000900205B
:101AB000002934D00123002210B488422CD3012401
:101AC0002407A14204D2814202D209011B01F8E796
:101AD000E400A14204D2814202D249005B00F8E74F
:101AE000884201D3401A1A434C08A04202D3001B7B
:101AF0005C0822438C08A04202D3001B9C082243AE
:101B0000CC08A04202D3001BDC082243002803D0EB
:101B10001B0901D00909E3E7101C10BC704700281D
:101B200001D00020C04307B4024802A1401802902F
:101B300003BDC046D90000000029F0D003B5FFF76F
:101B4000B9FF0EBC4243891A1847C046002941D04C
:101B500010B4041C4C40A44601230022002900D5E7
:101B60004942002800D5404288422CD30124240752
:101B7000A14204D2814202D209011B01F8E7E4002C
:101B8000A14204D2814202D249005B00F8E78842B8
:101B900001D3401A1A434C08A04202D3001B5C0830
:101BA00022438C08A04202D3001B9C082243CC088D
:101BB000A04202D3001BDC082243002803D01B09EB
:101BC00001D00909E3E7101C6446002C00D540420F
:101BD00010BC7047002806D003DB0020C04340083B
:101BE00001E08020000607B4024802A140180290DC
:101BF00003BDC046190000000029EBD003B5FFF774
:101C0000A7FF0EBC4243891A1847C0467047C0461A
:101C1000F0B55F4656464D464446F0B44602450090
:101C2000C00F85B00F1C760A2D0E804641D0FF2DC7
:101C300026D08024240400212643F6007F3D8946D7
:101C40008B46F90F7C027800640A000E00918A46E8
:101C50003CD0FF2834D080231B041C430023E40025
:101C60007F380193009F4346019A7B4049469C463A
:101C700011430F2900D971E0764F89007F58BF4684
:101C8000002E3ED10822022391469B46D9E75A46B0
:101C9000341CC24601920199022937D0032900D190
:101CA000CFE0012900D0ABE053460B4000220026D4
:101CB00032E0002E19D10421012289469346C0E763
:101CC000221C531E9A4102320192CBE70127019751
:101CD000002CC7D0201C00F06FF9431F9C407623D6
:101CE0005B420021181A0191BCE7301C00F064F936
:101CF0007625431F9E406D4200232D1A99469B4630
:101D00009FE70C23032199468B469AE7D44601238B
:101D100067463B40FF2200267602D205700ADB07A9
:101D20001043184305B03CBC90469946A246AB46CA
:101D3000F0BD80260023F603FF22EDE700220026F7
:101D4000EAE78020C00306423BD0044239D1061C9A
:101D500026437602760A009BFF22DDE7281A0390CD
:101D600076016401A64239D3361B1A2201230120D1
:101D7000311C5B007600002901DBB44201D8361B20
:101D80000343013A002AF3DC741EA641341C1C43B1
:101D9000039A7F32002A27DD630704D00F232340F4
:101DA000042B00D00434270103D52B4B039A1C408D
:101DB0008032FE2A0BDD012361460B40FF22002604
:101DC000AAE706437602760A4346FF22A4E7A40167
:101DD00001236746660AD2B23B409DE7039F1B2260
:101DE000013F03970023C2E77E23039F5B42DB1B77
:101DF0001B2B07DD012361460B40002200268BE7E9
:101E0000D446C5E7221CDA40039B9E339C40231C2A
:101E10005C1EA34113435A0704D00F221A40042A20
:101E200000D004335F0105D5012361460B40012238
:101E3000002671E79E01624601231340760A0022C4
:101E40006AE78026F60326437602760A5346FF2287
:101E500062E7C046D0820008FFFFFFF770B5041E9E
:101E60003CD0C60F00D04442201C00F0A5F89E23B1
:101E7000251C1B1A962B0CDC083884406402640A6B
:101E8000DBB2321C6402DB05600AD2071843104340
:101E900070BD992B0ADD0522121A211CD1400A1CA3
:101EA000011C1B318D40691E8D411543052801DD44
:101EB000421F9540164C2C406A0704D00F22154053
:101EC000042D00D0043461010CD59F23181AFF287B
:101ED0001AD0A401640AC3B2321CD3E70022002343
:101EE0000024CFE7E408FF2B04D06402640ADBB2CD
:101EF000321CC7E7002C04D08020C00304436402D6
:101F0000640A321CFF23BDE7321CFF230024B9E71B
:101F1000FFFFFFFB43001B0E5A1C4102D2B270B5FB
:101F20004C0AC50F012A17DDE02292006407090B55
:101F30009818002200231E0D221C34050C431B4957
:101F4000400540082140014349004908ED070B1CAA
:101F50002B43101C191C70BD002B15D1002C1CD05C
:101F6000201C00F029F80A281ADC0B21091A231C6E
:101F7000CB40191C031C15339C400D4B0903181A48
:101F80004005090B400DD4E7002C03D06407090B72
:101F90000848CEE707480021CBE700200021C8E72A
:101FA000011C0B398C40211C0024E6E7FFFF0F8049
:101FB00089030000FF0700001C2101231B04984235
:101FC00001D3000C10391B0A984201D3000A0839CA
:101FD0001B09984201D30009043902A2105C401881
:101FE0007047C04604030202010101010000000025
:101FF000000000000EB400B59CB01DAB04CB8222E3
:1020000002A992008A810A4A02908A604A610122EA
:102010005242CA81074A086110681D9A019300F074
:102020000BF8029A002313701CB008BC03B01847C9
:10203000FFFFFF7F40040020F0B544465F46564650
:102040004D46F0B4C7B014930B9190460D9002F03A
:102050001BFB00681A9003F093F90B9C1D90A38959
:102060001D0604D52069002801D101F0A1F836AC85
:10207000002529AF0023099429940024BB607B60CC
:1020800019951B941C9536AE1F941E951194C3464A
:102090005D462B785C46002B1BD0252B02D118E027
:1020A000252B3AD001342378002BF9D15846251A34
:1020B000002D0ED0B8685A462B18BB607B68326082
:1020C000013375607B60072B34DC083611994919A0
:1020D00011912378002B36D0621C8725934600236C
:1020E0006D4401222B7052420025637800240C922B
:1020F000109410220A95402480259146002120202A
:10210000A446AA465A4601321C1C203C582C00D931
:10211000CAE2C74DA4002C59A7465946651AC7E71D
:10212000109D14946D4210950A9C04231C430A943C
:102130001378E8E70D980B993A1C03F029F9002869
:1021400009D136AEC2E7B868002804D00D980B99C3
:102150003A1C03F01DF90B9C1198A3895D0601D56B
:102160000120404247B03CBC90469946A246AB464F
:10217000F0BD13782B21C6E71378551CA8462A2BEF
:1021800001D101F0F0F91C1C303C0022092C01D9CE
:1021900001F05FF92B1C884691008A185200013328
:1021A000A2185C1E21780C1C303C092CF4D91C1C94
:1021B0000B1C4146A046002A01DA01F067F80C9298
:1021C0004246A1E70A9C55462C430A9413789AE7A5
:1021D0000A9C1793102387251C436D440A94297089
:1021E0000A9D9346AD0600D470E1149A0723073286
:1021F0009A43141C5368126808341494129213936F
:10220000002B00DA70E187256D442D78129A13981F
:10221000A846012302430C9C002C03DB0A9D80216D
:102220008D430A95002A00D068E30C9C002C00D056
:1022300064E3002B01D000F0C1FC0A9DED0701D43E
:1022400000F0BCFC6D46D7353023099C2B70641B15
:102250000F9415950F9B0C9DAB4200DA2B1C0024AC
:102260000E9318944546002D02D00E9C01340E9416
:102270000A9D02231D40AA4602D00E9C02340E94F1
:102280000A9D84231D40A94600D017E2109D0E9898
:102290002C1A002C00DC11E2BA687B68102C01DCDF
:1022A00000F0F0FF634D311CA8464646102503E0C0
:1022B000103C0831102C15DD103201330E604D60DA
:1022C000BA607B60072BF3DD0D980B993A1C03F085
:1022D0005FF8002800D03EE7103CBA687B6836A95A
:1022E000102CE9DCB0460E1C404674600133A41883
:1022F0003060BC607B60072B01DD00F0B6FC8721FD
:102300006944097808368846D9E1179387236B44D6
:102310001970149B93460733072293431D1C0835FD
:1023200014951C681B945B681B981C931C9902F005
:10233000E5FF012801D000F0CFFD1B981C993B4B15
:10234000394A03F069FC002801D000F0F0FF87252E
:102350006D442D78A846179C472C01DC00F024FF23
:10236000354C15940A9D80239D4303240A950E94B1
:1023700003250F95002400250C94189572E700247E
:1023800010941C1C303C002388469900CB185B003D
:1023900001321B19541E21780C1C303C092CF4D935
:1023A00010930B1C4146AFE60A9D08231D430A9576
:1023B0001378A8E60A9C179310231C430A940A9DDD
:1023C0009346AD0600D45FE1149B07220733934385
:1023D0001C1C083414941C685D6812941395221C0C
:1023E00000232A43872400216C442170884612E789
:1023F0000A9C179310231C430A940A9D9346AD062A
:1024000000D42BE1149B0722073393431C1C083490
:1024100014941C685D68221C1294139501232A43AE
:10242000E0E7C046C046C0460000000000000000D3
:1024300010830008C8840008888400089346BC4CB8
:1024400087220A9D6A44179311701F94AD0600D429
:10245000A1E0149B0722073393431C1C08341494F7
:102460001C685D68129413950A9DED0701D400F075
:102470000CFC129A139802230243B3D00A9D179CB6
:1024800022A930201D4308704C700A95AAE7149CBD
:102490001793149B04341B6893462CAD14940124A9
:1024A00087202B70684400230E940F94002403703F
:1024B00098460C9418941595DAE687200A9D68448E
:1024C000179393460170AD0600D58EE60A9DED0682
:1024D00001D400F040FD149C236804341293DB17F0
:1024E0001393149400D48EE6129813990025444255
:1024F0008D4187212D236944221C0B70984612942C
:10250000139501232A4386E687250A9C6D4493464A
:102510002970A40601D400F0F9FC149D119C2B68CD
:10252000E21704351C605A601495B1E5149B149DA4
:102530001B680A9C1293043502231C43934622AB6A
:10254000302214957B4D1A70002078220A9478244A
:102550005A7013901F9502231794129A42E70A9C0F
:1025600065462C430A941378CDE51378141C6C2B24
:1025700001D100F07FFD0A9C4D462C430A94C2E530
:1025800087256D4429706B4C0A9D179393461F94C1
:10259000AD0600D55DE70A9DED0601D400F0CDFC47
:1025A0001498149C00680021043412901391149420
:1025B0005AE70A9C04430A941378A4E5149D149CDA
:1025C0002D6887201793684400239346043415959B
:1025D0000370002D01D100F091FE0C9D1598002D87
:1025E00001DA00F043FE00212A1C02F0D7FA00288D
:1025F00001D100F0F3FE159D401B0C9D0F90A842E9
:1026000000DD0F9587200F9D68440078EB43DB17B2
:1026100080461D400E951494002500240C941895B6
:1026200020E60A9D01231D430A9513786BE5149D4E
:10263000149C2D6804341095002D00DA70E5137891
:10264000149460E51378002900D05CE520215AE558
:102650000A9D17939346AD0600D5D3E60A9DED0675
:1026600001D400F09DFC1498149C006800210434EF
:102670001290139114940123021CB3E60A9D179340
:102680009346AD0600D59FE60A9DED0601D400F005
:1026900072FC1498149C0068002104341290139169
:1026A00014940023021C9DE687256D4417939346DE
:1026B0002970002B00D146E52CADF0E6BC684346FE
:1026C000002B0DD0012373607B6887256D44013496
:1026D00001333560BC607B60072B00DD1AE20836F1
:1026E000504600280CD022AB3360022373607B6815
:1026F00002340133BC607B60072B00DD22E2083628
:102700004946802900D17DE10C9A0F9BD51A002DF6
:102710003EDD7B68102D01DC00F052FC06491022E2
:1027200089469246211C321C0D9C2E1C4D4609E008
:1027300094840008A884000874840008103E0832BD
:10274000102E16DD50461031013315605060B9600F
:102750007B60072BF2DD201C0B993A1C02F018FE5F
:10276000002800D0F7E4103EB9687B6836AA102E26
:10277000E8DCA9460C1C351C161C494664190133BB
:1027800031607560BC607B60072B00DDB6E1083608
:102790000A9DED0500D5D8E0159D7B6835600F9D3D
:1027A000013364197560BC607B60072B00DD9AE023
:1027B00008360A9D6D0743D510980E99451A002DCD
:1027C0003EDD7B68102D01DC00F0ADFDDA48102104
:1027D0008946321C211C2E1C80460D9C0B9D03E05B
:1027E000103E0832102E17DDD3481031106001332F
:1027F00048465060B9607B60072BF1DD201C291C26
:102800003A1C02F0C5FD002800D0A4E4103EB968CF
:102810007B6836AA102EE7DC351C0C1C161C4146C2
:102820006419013322C6BC607B60072B08DD0D985C
:102830000B993A1C02F0ACFD002800D08BE4BC6878
:102840000E9B109DAB4200DA2B1C119DED181195CB
:10285000002C00D025E100237B6036AEFFF718FC8A
:10286000199D012D00DCEFE2012373607B68159D4B
:10287000013401333560BC607B60072B00DD04E36D
:1028800008361A9D013335601D9D984664197560A0
:10289000BC607B60072B00DD04E308361B981C99A5
:1028A000A44BA34A03F0B2F9002800D0F3E1199B2E
:1028B000159D0121013B88440135E41842463560ED
:1028C0007360BC607A60072A00DDDCE0083625AB67
:1028D0001E9D33604346641901337560BC607B60A4
:1028E000072B00DC64E70D980B993A1C02F050FDB1
:1028F000002800D02FE4BC6836AE5AE7012B00D187
:102900002CE1022B00D0D6E01F9D6B46D7330F2160
:10291000A946B4461C1C129A139B201C0C1C144084
:102920004D462C5D1E071509321C04702A431C09F4
:10293000231C151C441E1D43EFD1099C1590241A1D
:102940001292139366460F9484E4179D652D87DDDC
:102950001B981C99774B764A03F058F9002800D150
:1029600032E1764B01343360012373607B68BC60D5
:1029700001337B60072B00DD26E308362398199D81
:10298000A84203DB0A9DED0700D412E71A9D7B687D
:1029900035601D9D013364197560BC607B60072B39
:1029A00000DD6EE30836199D013D002D00DC00E7D7
:1029B0007B68102D01DC00F0CEFD614910228946B4
:1029C0009046211C321C0D9C2E1C4D4604E0083202
:1029D000103E102E00DCADE1404610310133156091
:1029E0005060B9607B60072BF1DD201C0B993A1C0D
:1029F00002F0CEFC002801D0FFF7ADFBB9687B6880
:102A000036AAE5E7109A0E9BD51A002D00DC7BE66E
:102A10007B68102D01DC00F0B7FC49491022894683
:102A20009246211C321C0D9C2E1C4D4603E0103E8C
:102A30000832102E17DD50461031013315605060FA
:102A4000B9607B60072BF2DD201C0B993A1C02F069
:102A50009FFC002801D0FFF77EFB103EB9687B6821
:102A600036AA102EE7DCA9460C1C351C161C49465C
:102A70006419013331607560BC607B60072B00DD39
:102A80001EE2083640E60D980B993A1C02F080FCD5
:102A9000002801D0FFF75FFB7B68BC68984636AE24
:102AA00015E70D980B993A1C02F072FC002800D132
:102AB000D1E6FFF750FB6B46D7330720B446129C94
:102AC000139D021C22403032191C1A706B07994664
:102AD000E6084C46EB0834431D1C261C4B1E2E43B7
:102AE000EFD1129413950A9C15916646E40700D520
:102AF0002FE1099D6D1A0F95FFF7ACFB0D980B990F
:102B00003A1C02F045FC002801D0FFF724FBBC680A
:102B100036AE3DE60D980B993A1C02F039FC0028C0
:102B200001D0FFF718FBBC6836AED9E5C046C046F9
:102B30000000000000000000C8840008C4840008F1
:102B4000748400080D980B993A1C02F021FC0028AF
:102B500001D0FFF700FBBC6836AED1E51398002822
:102B600002D11299092923D96B46D733B146129C59
:102B7000139D1E1C201C291C0A22002303F074F83C
:102B800030323270201C0A220023291C03F06CF81A
:102B9000021C041C0D1C731E0A43EAD115961294E4
:102BA0001395099D159C4E462D1B0F95FFF752FB63
:102BB0006D460B1CD7353033FFF747FB002536AC8D
:102BC0000F951594FFF746FB239B002B00DC07E2D3
:102BD00015981999189A4518281A8046904200DDD0
:102BE0009046404600280BDD7B681599444401332C
:102BF00031607060BC607B60072B00DD4AE3083603
:102C00004246D343DB1718981340C01A8046002869
:102C100000DCBBE07B68102801DC00F0A0FCDE4A91
:102C200010209146211C321C44468246A8464E463E
:102C30000D9D04E00832103C102C00DC95E050465D
:102C40001031013316605060B9607B60072BF1DDF5
:102C5000281C0B993A1C02F09BFB002801D0FFF7BF
:102C60007AFAB9687B6836AAE5E70D980B993A1CA1
:102C700002F08EFB002801D0FFF76DFA87226A442C
:102C80001278BC68904636AE19E5129A1398022362
:102C90000243FFF7A7FB199D013D002D00DC16E65E
:102CA000102D01DC00F040FCBB4910228946924601
:102CB000211C321C43462E1C0D9C4D4603E0103E49
:102CC0000832102E17DD5046103101331560506068
:102CD000B9607B60072BF2DD201C0B993A1C02F0D7
:102CE00057FB002801D0FFF736FA103EB9687B6821
:102CF00036AA102EE7DCA9460C1C351C9846161C7B
:102D00000122904449466419434631607560BC60B5
:102D10007B60072B00DCD9E50D980B993A1C02F07B
:102D200037FB002801D0FFF716FA7D68BC68A8467B
:102D300036AECCE5A9460C1C351C161C4946641958
:102D4000013331607560BC607B60072B00DC2FE5D0
:102D5000C9E5302A03D01593013930230B70099C43
:102D6000159D641B0F94FFF775FA4546B146A046C2
:102D7000161C0C1C494642464444013331607260C3
:102D8000BC607B60072B00DDACE20836159B199810
:102D90009846189B9844239B834247DB0A99C907AE
:102DA00044D441466A1A199DEB1A1D1E954200DD56
:102DB000151C002D0BDD7A68404664190132306025
:102DC0007560BC607A60072A00DD7CE20836EA4361
:102DD000D21715405D1B002D00DCEAE47B68102D46
:102DE00000DCD1E36C4A10209146211C321C804645
:102DF0002E1C0D9C4D4603E00832103E102E99DD2E
:102E000040461031013315605060B9607B60072B7C
:102E1000F2DD201C0B993A1C02F0BAFA002801D00E
:102E2000FFF799F9B9687B6836AAE6E71A9A1D9800
:102E300032607A68241801327060BC607A60072AB8
:102E400000DD33E20836ACE70A9D01232B4200D0B7
:102E50000AE57868159D804601208044013441468A
:102E600035607360BC607960072900DC2EE50D9841
:102E70000B993A1C02F08CFA002801D0FFF76BF98D
:102E80007A68BC68904636AE21E50D980B993A1CDD
:102E900002F07EFA002801D0FFF75DF9BC687B687C
:102EA00036AEEEE40D980B993A1C02F071FA002848
:102EB00001D0FFF750F97868BC68804636AEEDE483
:102EC0000D980B993A1C02F063FA002801D0FFF725
:102ED00042F9BC6836AE17E41B981C9902F00EFA52
:102EE000002800D0D9E0179C472C00DC6EE12B4C69
:102EF000159487200A9D6844802300789D4303240D
:102F00000A9580460E940325FFF733FA0A9DED06D5
:102F10000BD40A9C640608D5149D119C2D682C8046
:102F2000149D04351495FFF7B3F8149C119D236884
:102F300004341D601494FFF7ABF80A9D6D0600D4AD
:102F40006FE1149C0025248813951294149C04347A
:102F50001494FFF789FA0A9D149C6D0601D4FFF7BB
:102F6000BBFA0023E35E149D12930435DB17139321
:102F70001495FFF745F90A9D6D0600D439E1149CBC
:102F80000025248813951294149C0023043414946F
:102F9000129AFFF727FAC04674840008908400084C
:102FA0000A9D6D0600D430E1149C002524881395F9
:102FB0001294149C012304341494129AFFF712FA09
:102FC000E1488146FFF7D9FB0D980B993A1C02F0B6
:102FD000DFF9002801D0FFF7BEF8BC6836AECDE4BB
:102FE000DA4A01343260012272607A68BC600132D0
:102FF0007A60072A00DDECE00836181C002807D1AB
:10300000199D002D04D10A9DED0701D4FFF7D1FBD6
:103010001A9D7B6835601D9D013361197560B9602B
:103020007B60072B00DD19E2321C08324442002C81
:1030300000DC0CE1102C00DCC6E2C34D102604E0DD
:103040000832103C102C00DCF5E010310133156023
:103050005660B9607B60072BF2DD0D980B993A1C26
:1030600002F096F9002801D0FFF775F8B9687B687F
:1030700036AAE6E70A9D013205430A956378FFF711
:1030800042F80D980B993A1C02F082F9002801D001
:10309000FFF761F8BC6836AE85E4179D20230C9CD1
:1030A0009D43A946013400D1A0E0472D00D1C9E1DC
:1030B00080230A9C5B001C431C9D1C9B1694A84605
:1030C000002B00DAE7E100240E94179D662D00D155
:1030D0005EE1462D00D15BE14B460C9C453B5A42DC
:1030E0005341E4180223009323AB029324AB0393D0
:1030F00027AB049301940D981B9A434600F028FBDC
:10310000A2461590672D01D0472D03D10A9DED07EA
:1031100000D4E0E115984946041C5444462900D1E6
:1031200048E1884B864A1B98414602F06FFD221CFD
:1031300000280BD1279B1A1C9C4207D930215A1C0E
:1031400027921970279B9C42F9D81A1C159C4D4652
:10315000121B1992472D00D10EE1179C652C00DC43
:1031600038E2179C662C00D1A8E1239D1895199C84
:10317000189DAC4200DD7FE10A9CE40700D5D7E151
:10318000EB43DB172B400F95672517950E9D002D00
:1031900000D0E5E0872068440078169C80460E93B6
:1031A0000A940C95FFF75EF8694D1595FFF7DAF86C
:1031B0000D98402101F06CFA20602061002800D1B8
:1031C0000DE20B9D40236B61FEF751FF614D15959C
:1031D0008FE60D980B993A1C02F0DAF8002801D01E
:1031E000FEF7B9FF2398BC6836AE07E706240C94B7
:1031F0005EE7149D149C2D680020043412951390F2
:10320000149400232A1CFFF7EDF8149D149C2D68DC
:103210000020043412951390149401232A1CFFF704
:10322000E1F8149D149C2D6800200434129513902D
:103230001494FFF719F9A94648460919013310609B
:103240005460B9607B60072B00DD2AE10832159CD1
:10325000199D146001334C195560BC607B60072BCD
:1032600001DDFFF740FB161CFFF7A2FA02F088F819
:103270000F90C343872068440078DB1780460F9D7A
:10328000FFF7C7F934498846FFF72EF8012252426A
:10329000FEF795FF0D980B993A1C02F079F800287B
:1032A00001D0FEF758FFBC6836AEA9E40D980B9923
:1032B0003A1C02F06DF8002801D0FEF74CFF239B6A
:1032C000BC6836AE6DE50D980B993A1C02F060F8BB
:1032D000002801D0FEF73FFF199C239836AE231A31
:1032E000BC6874E50D980B993A1C02F051F800285F
:1032F00001D0FEF730FFBC6836AE47E50C9B062BCD
:1033000000D906230F930F9DDB43DB171494002491
:103310001D400C94114C0E950020002580461895F8
:103320001594FEF7A5FF0C4A9046FFF778FA872020
:103330002D23684403709846FFF70DF8C046C04639
:10334000000000000000000074840008C48400082D
:10335000848400088C840008C8840008BC840008A9
:10336000169C87202D2268440A94002402700E9334
:1033700090460C94FEF779FF239CE01C36DB0C9DF5
:10338000A54233DB1894F2E69B488146FFF76FFBBA
:103390000323009323AB0C9C029324AB039327AB32
:1033A000049301940D981B9A434600F0D1F9A2466C
:1033B0001590AFE60378302B02D0239BE418B0E6DB
:1033C0001B9841468B4B8A4A02F020FC0028F4D11E
:1033D000012350461B1A2393E418A2E68720684471
:1033E00000780E9580461494FEF7C3FF179D023DAA
:1033F0001795179825AD013C2394A8462870002CFA
:1034000000DAD4E06B462B2295331A70092C64DC69
:103410006B469633302230341A705C7026AB4446CB
:10342000199D1C1B2D191E94199C0F95012C00DC55
:10343000B7E00F9C01340F94E343DB1700252340D2
:103440001895A3E60C9C002C00D031E601250C95C4
:103450002EE600242A1C0C94FEF756FE0D980B99BC
:103460003A1C01F095FF002801D0FEF774FE239866
:10347000B9687B6836AAD9E5189C0123002C00DCCA
:10348000A5E0199D5B190F930F9CDB43DB176725A4
:10349000234017957AE680252D062D24A8440E9406
:1034A00013E60D980B993A1C01F072FF002801D029
:1034B000FEF751FEB9687B6836AAC8E6239C0C9DCE
:1034C0001894002C64DD002D3BD10A9CE40738D40D
:1034D000189B0F935AE6279A38E6A2216944894639
:1034E0000B1C201C0A211D1CFEF786FB30312970A5
:1034F000201C0A21FEF72AFB6B1E041E092CF0DC9F
:1035000030346A46E4B2A3321C70934264D20D3A5E
:1035100001E05C780133147001329945F9D19622AB
:103520007B1B6A44D3187AE733488146FFF7E8FBF0
:10353000189C67250134E343DB170F94234017954C
:1035400024E60C9B189D0133EB180F930F9CDB4373
:10355000DB1723401AE628488146FFF7EFFB264990
:103560008946FFF707FC149D149C2D68043453789A
:103570000C9514944246002D01DBFEF7C4FD012496
:1035800064420C94FEF7BFFD1B498946FFF7D6FB4A
:10359000002D12D10A9CE4070FD4012401230F94BB
:1035A000F4E50A9DED0700D543E70F9C44E76B4621
:1035B0002D22953364421A7028E70C9D0235EB43A7
:1035C000DB170F952B40E1E50B48814634E60223DB
:1035D0001B1B56E7239C0CE76B4696331FE70D9C9D
:1035E0000C23012023604042FEF7BCFDC046C046CC
:1035F000000000000000000074840008C046C046BF
:10360000F0B544465F4656464D46F0B480468B467C
:103610000C694146096985B000208C4200DD90E0CC
:103620005D46013C1435A30002954746ED1814375A
:103630002968FB18013118680393FEF739FA061E52
:1036400042D000218A46029B3A1CAC46B9465546F8
:10365000071C0E1CA24602CB0804000C7843090C80
:1036600079433018040C6418116800040904090C2B
:103670004D19000C281A1568260C2404290C240C5A
:103680000514091B491900040D14000C0904014319
:1036900002C29C45DFD203993E1C096865464F462D
:1036A0005446002910D1039B043B9F420AD21A685A
:1036B000002A03D006E01968002903D1043B013C2D
:1036C0009F42F8D3424614614046594601F028FD16
:1036D000002835DB002189460136211C029BB446B7
:1036E0004C463A1C2E1C8946116820CB0804000C5D
:1036F00004192804000C201A090C2D0C0414491B71
:10370000091900040C14000C0904014302C29E4272
:10371000EAD24C46A300FB181A686646002A0FD16D
:10372000043B9F420AD21D68002D03D006E01968B1
:10373000002903D1043B013C9F42F8D34246146167
:10374000301C05B03CBC90469946A246AB46F0BD45
:10375000F0B556464D465F464446F0B4016C9DB008
:103760008246299D02920393002909D0436C0122CD
:103770009A404B608A6001F0C1FA002351460B6405
:10378000039E002E34DB00232B601F4B321C1A409B
:103790009A421AD0029C039D1A4B194A201C291CDC
:1037A00002F034FA002837D0289C2A9D0123236098
:1037B000002D00D13AE21548286001381DB03CBC0C
:1037C00090469946A246AB46F0BD114B289C029DFF
:1037D0002360002D00D10CE20E482A9C002CEDD075
:1037E000C278C31C002A00D005332A9D2B60E5E770
:1037F0007600012376082B600396C6E7C046C046D4
:1038000000000000000000000000F07FC5840008F8
:103810000F270000E48400081BAB00931AAB019350
:1038200050462B1C221C01F00BFD330D834600D1AA
:10383000E4E1201CBC4C2A03120B211C1143BB4A9F
:1038400000241A9F9E181394A84BA74A03F07EFCED
:10385000A74AA84B03F0EAF9A74AA84B02F05AFA84
:10386000041C301C0D1C03F0D9FFA54AA54B03F026
:10387000DDF9021C0B1C201C291C02F04BFA041C55
:103880000D1C03F097FFA04AA04B0890291C201C98
:1038900002F0C2F9002800D0BBE2089D0124119477
:1038A000162D0FD8A24AEB00D31818685968029A4F
:1038B000039B02F0C5F9002800D1CDE3013D0024AF
:1038C000089511940024BE1B0994013EB14600D511
:1038D000ACE2089C002C00DA92E20025A1440D9491
:1038E0000B95269C092C00D9A2E10125052C02DDAF
:1038F000043C26940025269C032C01D100F0FFFCFB
:1039000001DC00F07FFC269C042C01D100F0FDFBC3
:1039100001241094269C052C00D08BE1279C08994B
:103920006418129401340A94002C01DC00F037FC76
:103930000023524653640021172C0AD90122042384
:103940005B00181C1430111C0132A042F8D95346F8
:103950005964504601F0AAF951460C9008640E2CA7
:1039600000D978E1002D00D175E1089D002D01DC22
:1039700000F002FD2A1C0F236D491A40D2008A185C
:103980000899146855680E11F20601D400F0C3FCC2
:103990001E40684B029803991A6A5B6A02F0DCFCCD
:1039A0000E900F9103239846002E12D0614F201CD9
:1039B000291C44460123334204D03A687B68013411
:1039C00003F034F976100837002EF3D1A0460D1C11
:1039D000041C0E980F99221C2B1C02F0BDFC061C27
:1039E0000F1C119D002D09D0301C391C484A494B31
:1039F00002F012F9002801D000F0A9FD404603F0C2
:103A00000DFF021C0B1C301C391C03F00FF9424A3D
:103A1000424B02F07FF90E900F910F9B464C0A9D8E
:103A20001C190F94002D01D100F044FC089C0A9D44
:103A30001894A846109C002C01D100F0DEFC4346EF
:103A40003B4A013BDB00D3181A685B6834483549B0
:103A500002F082FC0E9A0F9B03F078FB14901591F4
:103A6000391C301C03F0A6FE041C03F0D7FE021C18
:103A70000B1C301C391C03F069FB271C30370C9DD4
:103A80000E900F910E9A0F9B149815990C9EFFB2F1
:103A90002F70013602F0D4F8002801D000F097FD15
:103AA0000E9A0F9B1A481B4903F050FB021C0B1C7B
:103AB0001498159902F0C4F8002801D000F0C3FD55
:103AC0004146012900DCC6E04C46199452465C464A
:103AD000A8441694B1460E9C0F9D149E159F0E92FD
:103AE0003EE0C046C046C046000000000000F83F6F
:103AF00061436F63A787D23FB3C8608B288AC63FF4
:103B0000FB799F501344D33F0000000000000000E9
:103B1000000000000000F03F0000000000001C401A
:103B2000000000000000E03F0000F03F01FCFFFF4C
:103B3000F8840008C08500080000C0FC221C2B1C73
:103B4000BE49BD4803F002FB321C3B1C02F064F886
:103B5000002801D000F053FDC14501D100F05BFD0C
:103B6000301C391CB64AB74B03F060F8B44AB54B69
:103B7000061C0F1C201C291C03F058F80D1C041CEB
:103B800003F018FE824603F049FE021C0B1C201CA9
:103B9000291C03F0DBFA0D1C012101234942994441
:103BA0008B4653463033CB44DBB25A46041C137069
:103BB0009A46201C291C321C3B1C02F02DF80028C0
:103BC000BCD00E9C169BA246189C9B464E46089461
:103BD0005046594601F092F800233370089B289C08
:103BE0002A9D01332360002D00D108E32E600C983C
:103BF000E4E5360300D0EFE59548EEE51A9F1B9902
:103C0000944B7D189D4200DA20E29348934A401B72
:103C1000029C8640AB18301CDC40204303F03CFE85
:103C20008F4A012489186E1E13940DE68D48C5E550
:103C3000002426940023554600216B64504601F071
:103C400035F801267642002101240C9028640A965A
:103C50001296279110941B9B002B00DAB2E0089D6E
:103C60000E2D00DDAEE0804AEB00D3181C685D68C5
:103C700004940595279D002D00DA50E2029C039DD7
:103C8000049A059B201C291C02F066FB03F092FDA0
:103C9000804603F0C3FD049A059B02F0C7FF021C97
:103CA0000B1C201C291C03F051FA43460C9A30339C
:103CB0000C9E13700A9B041C0D1C0136012B53D063
:103CC0005F4A604B02F0B2FF5F4A604B041C0D1C60
:103CD00001F09CFF002800D07AE70C990C9F8946E0
:103CE0000A99023752465B46BA46894402930792C4
:103CF000049E059F12E0101C191C514A514B02F002
:103D000095FF514A514B0D1C041C01218A44201C73
:103D1000291C01F07BFF002800D0B2E2321C3B1CC2
:103D2000201C291C02F018FB03F044FD804603F020
:103D300075FD321C3B1C02F079FF021C0B1C201C81
:103D4000291C03F003FA021C0B1C041C0D1C40462A
:103D5000514601393030D3460870CA45CBD1029A5A
:103D6000079B564693469A46221C2B1C201C291C56
:103D700001F0D0FF041C0D1C221C049805992B1C7B
:103D800001F04AFF00280CD104980599221C2B1C35
:103D900001F03CFF002800D11AE74346DB0700D4BE
:103DA00016E7741E27780C9B06E0A34200D1CAE2F6
:103DB000023E3778261C013C392FF6D00137FFB27E
:103DC000277005E7109C002C50D0269D012D00DCAB
:103DD000CCE10A9C0B9D013CA54200DA93E22C1B2E
:103DE0000A9D002D00DA99E3099E0A9B099D504621
:103DF000ED1801210995994401F02AF8071C38E0D3
:103E0000089D099C641B09946C4200250B940D9538
:103E100067E5089803F002FD2B1C221C01F0F6FE5A
:103E2000089D43424341ED1A089536E54D466D42E3
:103E30000995A1464DE5C046000000000000F03F96
:103E4000000000000000244000000000000000000E
:103E5000D8840008EFFBFFFF0EFCFFFF12040000F8
:103E6000000010FEC4840008F88400080B9C099E22
:103E70000027002E0DD0494600290ADD4B46B145EA
:103E800000DD40E1099D4946ED1AC91A0995F61A67
:103E900089460B9D002D1ADD109D002D00D127E2D3
:103EA000002C10DD391C221C504601F07DF8071C47
:103EB0005A46391C504600F0D5FF5946051C50465D
:103EC00000F01CFFAB460B9D2A1B00D048E150467A
:103ED000012100F0BDFF0D9C8046002C05DD414610
:103EE0005046221C01F060F88046269D0024012DDA
:103EF00000DC8EE10D9D0123002D00D074E14B44C8
:103F00001F22134000D19FE02022D21A042A00DC95
:103F10009FE31C22D31A099DF618ED1809959944C0
:103F2000099D002D05DD594650462A1C01F098F8E0
:103F300083464946002905DD414650464A4601F080
:103F40008FF88046119D002D00D02EE10A9D002D96
:103F500000DC71E1109D002D00D180E0002E05DD18
:103F6000391C5046321C01F07BF8071CB946002C66
:103F700000D02EE20C9C0A9D231C013B5B19029D84
:103F80000D9301231D4042460295A0465D460792CF
:103F900054460799281CFFF733FB031C30330A9063
:103FA000391C281C099301F0BBF8079982464A4640
:103FB000201C01F0D1F8C168061C002900D0E4E003
:103FC000281C311C01F0ACF88346311C201C00F089
:103FD00095FE26995B460B43514603D1029A002A6F
:103FE00000D1F8E2002900DA62E2269953460B4339
:103FF00003D1029A002A00D1FAE25946002900DDD5
:1040000076E2099A41460A700D994646013688457E
:1040100000D17CE2291C0A220023201C00F078FE3B
:10402000391C051C0A22201C00234F4500D1A6E0A4
:1040300000F06EFE4946071C0A22201C002300F0F7
:1040400067FEB0468146A4E71C2364E7C648029990
:10405000401B8140081CE1E50025119532E40C9AD3
:10406000B946002447460A9E5D46904606E0291C54
:1040700050460A22002300F04BFE051C391C281C68
:10408000FFF7BEFA031C303341460B550134A642FC
:10409000EDDC0A9EB8460993AB464F46002E00DC85
:1040A00040E20C9C0025A61959465046012200F01A
:1040B000D7FF4146834601F033F8002800DC32E1A7
:1040C000741E23780C9A06E0A24200D1D2E0023E90
:1040D0003378261C013C392BF6D00133237050462F
:1040E000414600F00BFE002F00D171E5002D05D0F8
:1040F000BD4203D05046291C00F000FE5046391C3A
:1041000000F0FCFD64E5331CBCE601241094279903
:1041100000293DDD0C1C12910A91FFF709FC0A9C55
:10412000002C00DDAAE500D085E28C4B8A4A049879
:10413000059902F07BFD029A039B01F08BFD00289C
:1041400000D1FCE0002290460027279C0C9EE4430F
:1041500008945046414600F0D1FD002FCED137E5FE
:104160005946504600F020FF8346B0E6139C002CD1
:1041700000D1D9E17D4D0B9C5B19099E36E600F01C
:10418000C7FDB046071C814603E7012293461CE7A2
:10419000012301210122012412930A912792514601
:1041A00000234B640021FFF7D4FB5846414600F042
:1041B000B7FF002800DBC9E6089D5946013D50467F
:1041C0000A220023089500F0A3FD129D83460A955C
:1041D000109D002D00D1B9E6391C50460A2200235B
:1041E00000F096FD071CB1E641460B6903339B00C6
:1041F0004344586800F0E0FD20231B1A7FE60C982A
:10420000FFF7DCFA00241094269C022C00D17EE7F4
:1042100010E50299002900D06CE6039A130300D040
:1042200068E6534B134200D164E6099C0125013432
:104230000994A94401245DE6269D022D00DC89E64F
:104240000A9C002C81D1414650460522002300F0F3
:104250005FFD80464146584600F062FF002800DCC2
:1042600073E7089D0C9E0C9C3123013501362370A9
:1042700008956EE7089C3123013408940C9C237048
:104280002DE70299079A5E4692468B46A0E4404687
:1042900003F0C4FA021C0B1C301C391C02F0C6FCD3
:1042A0002F4A304B01F036FD0E900F910F99314A95
:1042B0008A180F92294B284A301C391C02F046FFFD
:1042C0000E9A0F9B041C0D1C01F0BAFC002836D17D
:1042D000201C291C0F9C80252D060E9A631901F0C5
:1042E0009BFC002800D1B6E40025A84600272CE757
:1042F000594650460B9A00F057FE8346E7E50024E6
:104300001094FFF70BFB0B9D0B94631B0D9D00247A
:10431000ED180D9564E50299039A0E910F92022211
:104320009046FFF741FB002804D1099CE40701D522
:10433000C6E61E1C731E1A78302AFAD0CFE6002576
:10434000A84600278DE7089D3023013508950C9D70
:1043500031272B7027703BE4000000000000144060
:104360000000000000001C40EEFBFFFF33040000D3
:104370000000F07F0000C0FC089D6C42002C00D1C2
:10438000D8E00F232340BC4ADB00D31802980399DE
:104390001A685B6802F04AFC2411061C0F1C002CF2
:1043A00000D14CE102218846B44D301C391C4646F0
:1043B0000122224204D02A686B68013602F036FCE2
:1043C00064100835002CF3D1B0460F1C061CFFF713
:1043D00008FB7968504600F069FC3A69391C0232E2
:1043E000041C92000C310C3000F01AFC5046211CC9
:1043F000012200F035FE8146BCE54546013D9E4A5E
:10440000EB00D318186859680E9A0F9B149502F0A8
:104410000DFC16901791391C301C03F0CBF90E904F
:1044200003F0FCF90B1C021C391C301C02F08EFE40
:104430000E9F0D1C0C9E0C9930370F7001364144B5
:104440004346041C371C0E91012B1ED0B046201C85
:10445000291C844B824A02F0E9FB041C0D1C03F06A
:10446000A9F9061C03F0DAF9021C0B1C201C291CFC
:1044700002F06CFE30360E9C3E700137A742E8D148
:104480000D1C14994646041C7618774A774B1698EB
:10449000179901F03FFC221C2B1C01F0BDFB0028EA
:1044A00000D180E0189D741E277808950C9B83E44A
:1044B000079A5E46A246AB4644469046002E11DD62
:1044C00059465046012200F0CBFD4146834600F09C
:1044D00027FE002800DCA6E0099D392D30D00A9D7A
:1044E00031350995099D661C25703D1C4F46F6E542
:1044F000AB46079A099DA24644469046392D1FD0E7
:10450000099B3D1C0133661C23704F46E7E5AB4613
:10451000079DA246A8463D1C4F46C5E509990023C4
:104520004E1B63E40126BCE51A9936235B1A0B9CEB
:10453000099E5BE40223029E039F9846FFF751FA0F
:1045400039233D1C661C23704F460C9AC3E50A9C18
:10455000002C00D19BE6129D002D01DCFFF77BFBB8
:10456000089C404B3E4A301C391C013C189402F018
:104570005DFB061C404601300F1C03F04FF9021C86
:104580000B1C301C391C02F051FB394A394B01F02D
:10459000C1FB0E900F910F9D3949129A69180F9126
:1045A0009046FFF747FA169A179B2F482F4902F0BB
:1045B000CDFD221C2B1C01F043FB002801D1FFF78D
:1045C0004AFB00E01E1C731E1A78302AFAD0189D90
:1045D0000895FFF7FDFAAB46079A099DA24602919E
:1045E00044469046392DABD0002900DD77E779E7C6
:1045F000079B5E46A246AB46444698465EE70E9D44
:1046000057461699AA46189D5C464E468B46089515
:104610000C9BFFF7D1FB199A169B0E9C91469B466B
:10462000A246FFF718FB002800D05BE7099DED07C5
:1046300000D457E750E700218846002785E502248B
:10464000A046FFF7CEF9189C08940C9C231CFFF79A
:10465000B3FB042A00D163E43C22D31A5BE4C046D6
:104660000000000000002440000000000000E03FC7
:104670000000000000001C40F8840008C08500080D
:104680000000C0FCC046C0460048704744040020FB
:10469000F0B5564644465F464D46F0B40C1C0B340C
:1046A00083B0061C162C2BD907239C432BD4A14284
:1046B00029D8301C00F0F6FAF823FF339C4226D8A4
:1046C000E208CA4DD300EB18DF689F4200D1BBE17E
:1046D00078680323FA68B96898433B18CA60916008
:1046E000596801220A43301C5A6000F0DDFA381C78
:1046F000083003B03CBC90469946A246AB46F0BD9C
:104700001024A142D5D90C2333600020F1E7630ABD
:1047100000D18EE0042B00D93DE1A30938339C463B
:104720005900B24D89006918CF68B94215D07A682E
:1047300003239A43101B0F2800DD8DE000287CDA4C
:10474000032007E07A688243131B0F2B00DD83E010
:10475000002B72DAFF68B942F4D1012294442B1C79
:104760002F6908339F4200D163E1786803229043A8
:10477000021C011B0F2900DD4AE16B612B6100293E
:104780005FDA9B4B984200D90FE1C3089A100121D0
:10479000DB00EB18914068680A1C99680243FB60D3
:1047A000B9606A609F60CF6061468B1001219940BB
:1047B000914255D811420DD1032360469843031C02
:1047C000043349009C46114204D1042349009C440F
:1047D0001142FAD0032080466246D3005B199A4604
:1047E000181CE146C768B84207D124E1002B00DB62
:1047F00033E1FF68B84200D11DE17A6843469A432D
:10480000131B0F2BF2DD01213A190C437C60F86871
:10481000BC680835E06019438460EA60AA60301C17
:10482000D56095605160D35000F03EFA381C0830D6
:104830005FE73F227E21944673E7FB68B968CB604F
:104840009960BA18516801230B43301C536000F083
:104850002BFA381C08304CE70120404284447CE7A6
:10486000AF680323786898438146A04203D3031BB3
:104870000F2B00DD81E05F4A5F4B49461B681068E3
:1048800079180191E3189346013000D147E15B4963
:104890005B181B0B1B030093301C009900F05EFD9E
:1048A000021C804601325DD0019B834200D9EBE0BF
:1048B00053480099026882468B180199036041456C
:1048C00000D135E15A461268013200D143E1019826
:1048D00041460A1A9B1851460B6007234246134073
:1048E00000D104E1D21A08329046464AD31A009801
:1048F000021C42441205120D9A1A111C301C9346D8
:1049000000F02CFD411C00D121E14246801A5844A0
:1049100001231843524611680B1C5B444146A960B1
:1049200013604860AF4213D04A460F2A00D8E9E02E
:104930004A46786807210C3A8A4301210140114315
:1049400079600520B918486088600F2A00D906E10F
:104950002D4A1068834200D913602C4A11688B429B
:1049600000D91360AF6803237A689A43131B9442FB
:1049700000D9AEE00F2B00DCABE00122211C11437B
:104980003C1913437960301CAC60636000F08CF913
:10499000381C0830ADE6142B6ED9542B00D99DE09D
:1049A000230B6E339C465900BBE6430A042B67D9A0
:1049B000142B00D9B6E0191C5B3148008000401967
:1049C00083688146834200D194E003218846596878
:1049D000404681438A4202D29B689945F7D1D96803
:1049E0006A68F960BB608F60DF60DDE67C040020F0
:1049F000FF010000880800209C0800200F10000024
:104A0000A00800200810000098080020940800204A
:104A100001203A19044308437C606A612A615060AE
:104A2000D3609360301C515000F03EF9381C0830C0
:104A30005FE66A68B8E60122914443464A46083078
:104A4000134200D0CEE62CE03B1C7F6902320833D3
:104A50009446BB4200D182E63AE6BA185068012378
:104A600003435360FB68BA68301CD3609A6000F05F
:104A70001BF9381C08303CE65B339C46590050E675
:104A800081093831480099E7AF4200D06AE70FE763
:104A90005346186801225242083B94448246984289
:104AA00077D1434660460342F2D16B688B436B601B
:104AB0004900994200D9D3E6002900D1D0E6CC467E
:104AC000194200D088E60422490094441942FAD0E1
:104AD00082E6301C00F0E8F800200AE6AA22520024
:104AE000934214D8E30B77339C46590019E6802390
:104AF0005B01FCE68910686801228A4002436A6013
:104B0000191C6EE701234B60474600222EE7224A1C
:104B1000934218D8A30C7C339C46590001E610330D
:104B20000093B9E6542B22D8010B6E31480045E7BB
:104B30000A0500D0C6E60099AA68081C484401216D
:104B40000143516004E77E23FC219C46E9E50023F4
:104B500001209B46DEE6434658460360BDE6391C0D
:104B60000831301C00F02AFD51460B68F0E6AA21FE
:104B700049008B4203D8C10B773148001EE7064934
:104B80008B4203D8810C7C31480017E7FC207E2142
:104B900014E76B688CE7C04654050000F0B5CCB252
:104BA000830737D0531E002A1FD00278A2421DD09F
:104BB000032505E0002B18D00278013BA24215D056
:104BC00001302842F6D1032B11D8002B0DD00278EA
:104BD000A2420BD0421CC31804E00132511E0978D6
:104BE000A14203D0101E9842F7D10020F0BDFF264D
:104BF00031400E0231430E04074D0E430268074F49
:104C00007240D11991432942DFD1043B0430032B78
:104C1000F4D8DAE7131CD6E780808080FFFEFEFE22
:104C2000F0B50F2A35D9031C0B439C0735D1161C50
:104C3000103E36093501451910350C1C031C276838
:104C40001F6067685F60A7689F60E7681034DF6077
:104C50001033AB42F3D1731C1B01C518C9180F23C5
:104C60001340032B1BD91C1FA4080134A4000023EC
:104C7000CE58EE500433A342FAD1ED18C9180323DD
:104C80001A4005D00023CC5CEC5401339342FAD196
:104C9000F0BD051C002AF5D1FAE7051CF2E71A1C45
:104CA000F8E7C0467047C0467047C046C36C70B551
:104CB000041C0D1C002B0AD0AA009A1810680028AA
:104CC0000ED00368136000220261C26070BD04212F
:104CD000212200F0F3FBE064031EEDD10020F5E794
:104CE0000126AE40721D9200201C012100F0E6FB5F
:104CF0000028F3D045608660E5E7C046002906D06D
:104D00004A689300C26CD3181A680A601960704729
:104D1000F8B54D4644465F46564698460B69F0B492
:104D20000D1C83468A469946143500242E680134AA
:104D300037043F0C5743360C564347443B0C9E19EF
:104D40003F04310C3F0C3604F619884640C5A14596
:104D5000ECDC00290DD052469268914510DA4B46A2
:104D600004339B00534442465A604B46013351463C
:104D70000B6150463CBC90469946A246AB46F8BDF6
:104D80005346596858460131FFF790FF53461A6958
:104D900051460232041C0C3192000C30FFF740FFE8
:104DA000514649688B005946CA6C5146D3181A6857
:104DB000A2460A601960D2E7031C010C00220029F8
:104DC00001D103041022190E01D108321B02190F60
:104DD00001D104321B01990F01D102329B00002B3B
:104DE00005DB2020590000D47047501CFCE7101C44
:104DF000FAE7C0460368011C580708D00020DA070C
:104E000004D4980720D49B080B6002207047180434
:104E10000022002801D11B0C1022FF20184201D1D2
:104E200008321B0A180701D104321B09980701D167
:104E300002329B08D80704D45B082020002BE5D061
:104E400001320B60101CE1E75B080B600120DDE71D
:104E500010B50C1C0121FFF729FF012344610361F8
:104E600010BDC046F0B55F4656464D464446F0B4C8
:104E70000F69146985B00E1C151CA74204DA3B1C8F
:104E8000161C271C0D1C1C1CB3683A19716890462F
:104E90009A4200DD0131FFF709FF142142468346A3
:104EA0008B4493005B44191C039302905B460022E1
:104EB0008B4503D2039904C39942FCD81435AA4602
:104EC000A4001436BF0054440096F7190194A5427B
:104ED0004CD251460D682C04240C1FD0009A5B461E
:104EE0000025196840CA0804010C3004000C604316
:104EF000360C0818664340191D689946290C891913
:104F0000050C491900040D0C000C0904014302C3EF
:104F10009742E6D849464D60524615682D0C1FD081
:104F20005B4619680026009A081C341C1688000C81
:104F30006E433618361909043004090C0143196010
:104F400010CA5868240C6C430104090C6118360C13
:104F500089199C460C0C04339742E7D86546696072
:104F60000421019A8A448B445245B2D84346002B0F
:104F70000EDD039B043B1D68002D09D1424603E072
:104F8000043B1968002902D1013A002AF8D1904661
:104F9000029B4246181C1A6105B03CBC90469946DB
:104FA000A246AB46F0BDC046F8B546464F46032381
:104FB000C0B480460E1C141C134036D1A41023D05C
:104FC00041468D6C002D39D0002301279946274298
:104FD00007D1641018D0286800281AD0051C274271
:104FE000F7D04046311C2A1CFFF73CFF002E1AD098
:104FF00071684246D26C8B00D31819686410316016
:105000001E60061C002CE6D1301C0CBC9046994654
:10501000F8BD2A1C291C4046FFF724FF4A46286099
:105020000260051CDBE7061CD3E70B4A013B9B0033
:105030009A580023FFF76CFE061CBFE7404601218B
:10504000FFF734FE054B4246436101230361002311
:105050009064051C0360B7E7E88500087102000052
:10506000F0B54D46444656465F46F0B40E1C83B03C
:105070000190306955114019041CB3680134914600
:10508000496880469C4203DD01315B009C42FBDCA9
:105090000198FFF70BFE011C00901431002D08DD74
:1050A0000A1C00230027013380C2AB42FBD19B00C6
:1050B000C9183269331C950014331F224F465D19FD
:1050C000174027D02022D21B94460A1C00211868C2
:1050D0009246B840014302C202CB6046C1409D42A5
:1050E000F5D852465160002901D044460234019956
:1050F0007068009BCA6C013C1C618300D3181A685D
:10510000009832601E6003B03CBC90469946A246AF
:10511000AB46F0BD0A1C02CB02C29D42FBD8E6E7BB
:1051200010B50B690469E21A11D19A0014301431D8
:105130008318891801E098420BD2043B04391C689B
:105140000A689442F7D09442924101231A43101CFA
:1051500010BD0022FBE7C046F8B54F464646C0B436
:105160000C1C071C081C111C161CFFF7D9FF051E80
:105170005DD0002856DB00256168381CFFF796FDDE
:105180008446C5602069231C14338200D2189046DF
:105190003269351C14359200521964469146143414
:1051A000002104CB80CD1604360C71183E04360C59
:1051B0008E1B120C3F0C3114D21B52183604360CC5
:1051C0001114043412043243261F3260A945E8D872
:1051D0009946984517D9271C40CB35042D0C6D18DE
:1051E0002A14360C92192D0411142D0C12042A4382
:1051F00004C79845F0D84946CB4343449B08013344
:105200009B00E418261F331C002A04D1043B1A68B3
:105210000138002AFAD06346186160460CBC9046FB
:105220009946F8BD231C0125341C1E1CA4E7381C1C
:105230000021FFF73BFD012303614561EEE7C04616
:10524000F0B5012183B01D1C141CFFF72FFD2B03AB
:105250006A00061C1B0B570D02D080225203134319
:105260000193002C1AD068460094FFF7C3FD002874
:1052700031D1009B019C7361B4616342634102249C
:10528000E41A3461002F14D0194A0899BB181B186E
:105290000B60099A3523181A106019E001A8FFF76E
:1052A000A9FD019901237161336120300124002F90
:1052B000EAD1104B104AC018A31808999B00F318A4
:1052C00008605869FFF778FD6401099B241A1C6087
:1052D000301C03B0F0BD019C20231B1A211C9940F7
:1052E000009A0B1C1343C44073610194C4E7C04689
:1052F000CDFBFFFFCEFBFFFFFFFFFF3F0B1C011CA1
:10530000021C30B519430220002900D130BD802194
:1053100009068B4216D00D4904205C180C498C42BA
:10532000F4D90C4D5C198C42F0D90B4C590049084A
:105330000320A142EAD9074C0020A142E6D1504205
:105340005041E3E7002AE1D0EFE7C0460000F0FF5C
:10535000FFFFDF7F0000F07FFFFF0F0038B5074C35
:105360000023051C081C2360FCF784FB431C00D0B1
:1053700038BD2368002BFBD02B60F9E7FC08002028
:105380000023C25C0133002AFBD1581E7047C0467F
:10539000F0B556464D4644465F46F0B4936883B038
:1053A00001900D1C90461668002B00D17CE0086827
:1053B000002400218946AB68002C45D01F1C9C426C
:1053C0004BD39022AB89D200134249D029696A6934
:1053D000401A834650008218D00F8218521092460D
:1053E000621C5A44924554D292468020C000034227
:1053F00038D00198111CFFF74BF9071E57D05A46B9
:105400002969FFF70DFCAA892B4B13408022134317
:10541000AB8151465B46F818CB1A2F612860696151
:10542000271CAB60A2464946524600F08FF92A6815
:105430004146AB688968101CDB1B50440C1B42467C
:10544000AB602860946026D031687468894608365D
:10545000002CF9D01F1C9C42B3D2271CA246E2E7C5
:10546000BA46E0E7019800F011FA071ED1D1019881
:10547000296900F0A3F8019A0C231360AA8940233C
:105480001343AB81404600238360436001204042C8
:1054900003E05246A9E75460002003B03CBC9046AC
:1054A0009946A246AB46F0BD53600020F5E701994E
:1054B0000C230B60E2E7C0467FFBFFFF10B55143B2
:1054C000FFF7E6F8041E27D0031C083B5A680323A5
:1054D0009A43043A242A15D8031C132A05D800221B
:1054E0001A605A609A60201C10BD00210160416062
:1054F00008331B2AF3D98160C160242A07D0031C1A
:105500001033ECE7002100F073F9201CECE7031CDA
:10551000016118334161E2E70020E5E7F8B50F1CAF
:10552000041CFFF7BFFB204D204AAB685E680323D5
:105530009E43F71BBF183F0B1D4B013F3F039F428C
:1055400007DD201C0021FFF709FFAA689319984284
:1055500004D0201CFFF7A8FB0020F8BD7942201CD6
:10556000FFF7FCFE01300DD0AB68F61B012216439D
:105570005E60104B201C1A68D71B1F60FFF794FB5E
:105580000120EAE7201C0021FFF7E8FEAB68C21A01
:105590000F2ADEDD08490968401A06490860012122
:1055A0000A435A60D5E7C0467C040020EF0F000094
:1055B000FF0F0000A008002088080020F0B5474633
:1055C00080B4051C0C1E55D0FFF76CFB211C08395C
:1055D00048680127031CBB43CA185468804603204F
:1055E0008443201C534CA668964260D00026B446E3
:1055F0004646506037420AD10E68271C891B9B190A
:105600008E680837BE426BD0CF68F760BE60161850
:10561000766801273E4207D11B18604600282CD02F
:105620009068D268C26090600122181C10436646E0
:105630004860CB50002E1AD13F48834229D95A0ADC
:10564000042A50D89E0938367000800020188268DD
:1056500082424ED003265468B443A34202D29268D9
:105660009042F8D1D368CB608A609960D160281CE1
:10567000FFF71AFB04BC9046F0BD90682F4EB04275
:10568000CFD11F43C1608160C86088604F60CB503C
:10569000EDE7DB08981082406068DB00024362603F
:1056A000E418A368CC608B60A160D960DFE7C31801
:1056B0004046074206D10A68891A88689B18CA685A
:1056C000C260906001221A434A601D4AA1601268BC
:1056D0009342CCD31B4B281C1968FFF71FFFC6E76A
:1056E0000126B44693E7142A0CD8161C5B367000CA
:1056F000ABE7B6100123B3401E1C63681E4366600F
:10570000131CB0E7542A03D81E0B6E3670009CE7BA
:10571000AA204000824203D8DE0B7736700094E75F
:105720000948824203D89E0C7C3670008DE7FC202D
:105730007E268AE77C040020FF010000840400200C
:10574000840800209C08002054050000F0B5884221
:105750000ED98D18A8420BD28618531E5142002A2A
:1057600005D06A18D45C7218D454013BF9D2F0BD4C
:105770000F2A09D8051C002AF9D00023CC5CEC5470
:1057800001339342FAD1F2E7031C0B439C072AD161
:10579000171C103F3F093E01861910360C1C031CD4
:1057A00025681D6065685D60A5689D60E5681034CA
:1057B000DD601033B342F3D17D1C2D010F23491955
:1057C00013404519032B10D91E1FB6080136B60029
:1057D0000023CC58EC500433B342FAD10324ED1823
:1057E000C9182240C7E7051CC7E71A1CC3E7C04613
:1057F000F0B5830746D0541E002A42D0CEB2031C17
:10580000032503E0621E002C3BD0141C01335A1EFA
:1058100016702B42F6D1032C2BD9FF250D402A02FE
:1058200015432A0415430F2C15D9271C103F3F0997
:105830001E1C3A011036B6181A1C1560556095608A
:10584000D5601032B242F8D101373F010F22DB1987
:105850001440032C0DD9271FBF08BA001E1DB6180F
:105860001A1C20C2B242FCD10137BF000322DB194F
:105870001440002C05D01C19C9B219700133A34281
:10588000FBD1F0BD141C031CC5E7C046F0B54D4666
:1058900044465F465646F0B4804685B00D1C91469E
:1058A00000D1DDE02E1C083EFFF7FCF973684F467F
:1058B00003221C1C0B37B3469443162F00D976E005
:1058C000102001901027B94500D975E0019A944243
:1058D00056DAC548321980680390904200D1C3E07F
:1058E0005168081C8A4601218843844694446146D5
:1058F00048680121084264D000200022D90700D561
:1059000086E033680321F31A8C4659689A46634649
:1059100099438C46002A00D1DFE003998A4200D1E6
:10592000DEE061460B190199C018039088426ADBDA
:10593000D3689268D3609A605246D368926856469C
:10594000D3609A60221F0836242A00D9BBE0331C9A
:10595000132A0AD92B68504683606968C1601B2AE4
:1059600000D905E15346103308352A6851461A60BC
:105970006868039C5860AD68D3469D604B68351CD1
:10598000E21B0F2A2CD801221340234358464360C0
:105990005C4461680A4362604046FFF785F9281C51
:1059A00005B03CBC90469946A246AB46F0BD0722E6
:1059B0009743019700D486E70C2341460B600020F3
:1059C000EEE7032051468143081C09198C460199D2
:1059D0008C4593DBD16892686446D1608A60CFE7DA
:1059E0005846C119012003401F435B465F60131CEA
:1059F00003438A184B60536808311843506040468F
:105A0000FFF7DCFDC8E7039303980199884293DA16
:105A100049464046FEF73CFE8146002800D1D5E0CD
:105A20007368021C0121181C8843083A3618B242D8
:105A300000D198E0221F242A40D8132A22D84B46AE
:105A40002A1C106818605168596092689A60404634
:105A5000291CFFF7B3FD4046FFF726F948469FE7AC
:105A6000111CFEF715FE9BE7039A526802920298FA
:105A7000032290433A1C011910328C4691420CDAF1
:105A8000039A3BE729684B461960686858601B2AEF
:105A90005ED82A1C08330832D3E7534BF21960460C
:105AA0009A60C11B012319435160716840460B4045
:105AB0001F437760FFF7F8F8281C71E74846291C58
:105AC000FFF744FEC3E7291C301CFFF73FFE524698
:105AD0005368351C039CD34652E70B19039393E795
